:020000040000FA
:0318000002189833
:0318430002260872
:03184B0002395C03
:03185B00023986C9
:031863000239AB9C
:03187B00023B80AD
:10189300E18C64D63C75D000758181751420751573
:1018A300F10218AC00000080FB121915B900030205
:1018B300190FE4795F7810B800028004F709D8FCA7
:1018C300E490F120781E79038002F0A3D8FCD9FAC2
:1018D3007816903CA67A02BA00028007E493A3F636
:1018E30008DAF990F33DAA82AB83903CA8782F796C
:1018F300018015E493A3AC82AD838A828B83F0A32A
:10190300AA82AB838C828D83D8E9D9E71226D612BB
:1019130018A7790122740122C57C703BC57C33D2A0
:10192300919297C29133D2919297C29133D291926D
:1019330097C29133D2919297C29133D2919297C227
:101943009133D2919297C29133D2919297C29133AC
:10195300D2919297C29122C57C7A0831C631C6339F
:10196300D29131C1929731C1C291DAEF22E57C70F5
:1019730039D291C291A29733D291C291A29733D215
:1019830091C291A29733D291C291A29733D291C2BD
:1019930091A29733D291C291A29733D291C291A2CD
:1019A3009733D291C291A29733227A0831C631C6B6
:1019B300D29131C131C1A297C29133DAEF22000033
:1019C30000000000000000000000000000000022F2
:1019D300FAE57AB40704EA31F3222473057AF8EAC4
:1019E300F622E57A2473057AF8E62290DE28E022CF
:1019F30090DE28F022D90AD06FD0708C718D72419D
:101A0300F52253FE7FE57D7002C296D2977A10309D
:101A1300970EE57E6008EAC0E03170D0E0FADAEFB5
:101A2300002243FE80D2962231187003C28122D253
:101A330081227B087A00123BF631187004D2818030
:101A430002C2817B087A00123BF622897C22897DBF
:101A530022897E22756F1A7570FFC291C29743FE69
:101A63008253F6FD22121A57512B7B087A00123B40
:101A7300F6E960065401603280057825E6602B3173
:101A8300C1D29131C1C29131C1D29131C1C291311F
:101A9300C151355125C07C757C017455311BE4312E
:101AA3001B510531705125D07C2231C1513522E9BA
:101AB300311B223170F922C2AF740490DE0EF09014
:101AC300DE14E030E03390DE16E493F9602B856F8B
:101AD30083857082AD72AC71E47343FE80D296E568
:101AE3007B600790DE11E04401F0D910756F1A7521
:101AF30070FF90DE14E4F080C6D2AF2231EEF57BA6
:101B0300537B0103F57A537A070303541E901B1486
:101B1300736156617061906132616A618A61446187
:101B230064618461A2615E617E619C61B861D2314E
:101B3300F831EE311B5105317031D3317031D3415E
:101B4300DD31F831EE311B31F831EE311B31F83133
:101B5300EE311B31F831EE311B41DD31F831EE311D
:101B63001B31F831EE311B31F831EE311B31F831D5
:101B7300EE311B5105317031D341DD31F831EE3196
:101B83001B31F831EE311B31F831EE311B31F831B5
:101B9300EE311B5105317041DD31F831EE311B312E
:101BA300F831EE311B31F831EE311B31E5311B5188
:101BB30005317041DD31F831EE311B31F831EE3151
:101BC3001B31E5311B31E5311B5105317041DD31ED
:101BD300F831EEFD311B31F831EEFC311BED5407CA
:101BE300FD4C70027D08EC60010D31F831EE311BC4
:101BF300DCF8DDF65105317041DDBB0102E722C09F
:101C030082C08389828A83BB0003E08002E493D08D
:101C130083D08222BB000EC082C0838A838982F074
:101C2300D083D08222BB0101F722CAC0E0E6F0A331
:101C330008DAFAD0E0FA22700422600D18C6C33322
:101C4300C608C633C6D5E0F41822251410AF08F52C
:101C530014400215158008F51440021515D2AF2261
:101C6300C0D0251410AF08F514500205158008F5EF
:101C73001450020515D2AFD0D0222514F58210AF2F
:101C830008F514400215158008F51440021515D205
:101C9300AF851583222514F582E43515F58322E4F7
:101CA300732514C582C0E0E51534FFC583C0E0E5A4
:101CB30014C3958224F9F8E4C5A885831585821495
:101CC300C5A8E8CEF0A3E520F0A37808E608F0A3C2
:101CD300DEFAEFF0A3E58124FBF8E608F0A3E608BB
:101CE300F0A30808E608F0A3E608F0A31581158120
:101CF300D0E0FED0E0F815811581E8C0E0EEC0E049
:101D030022851583851482E0A3FEE0A3F5207808DD
:101D1300E0A3F608DFFAE0A3FFE0A3C0E0E0A3C07E
:101D2300E0E0A3C0E0E0A3C0E0E4C5A88582148599
:101D33008315C5A8D083D08222C0D02514C582C004
:101D4300E0E51534FFC583C0E0E514C3958224F3B1
:101D530010AF0885831585821480088583158582D5
:101D630014D2AFC8F0A3E9F0A3EAF0A3EBF0A37990
:101D730008E709F0A3D8FAECF0A3EDF0A3EEF0A383
:101D8300EFF0A3D0E0F0A3D0E0F0A3D0E0F0A3E520
:101D930020F0A3E5F0F0A322851583851482E0C02B
:101DA300E0A3E0F9A3E0FAA3E0FBA37808E0F608D8
:101DB300A3DFFAE0FCA3E0FDA3E0FEA3E0FFA3E0C2
:101DC300C0E0A3E0C0E0A3E0F5D0A3E0F520A3E0EA
:101DD300A3F5F0E4C5A8858315858214C5A8D08230
:101DE300D083D0E0F8D0E032740380047402800022
:101DF300C0E0F404121C7DD0E0121C2D22D083D04D
:101E030082C5F0E493A3C5F0C395F0F5F0E493A382
:101E1300C395F04005E5F0048001E475F002A425C4
:101E230082F582E5F03583F583E493A3C0E0E49380
:101E3300C0E022D083D082CCC0E0E493A36006123A
:101E43001E601470FAE493A36006121E7F1470FAE6
:101E5300D0E0FCE493A3C0E0E493C0E022C0E0E45C
:101E630093A3D39C5010E493A3C39C400AD0E0D027
:101E7300E0D0E0021E53A3A3A3D0E022C0E0E4938A
:101E8300A36C7009D0E0D0E0D0E0021E53A3A3D02E
:101E9300E022D083D082ECC0E0EDC0E0E493A3FC69
:101EA300E493A3FDED4C600D121EE1EC24FFFCED69
:101EB30034FFFD80EFE493A3FCE493A3FDED4C60BA
:101EC3000D121F20EC24FFFCED34FFFD80EFD0E06A
:101ED300FDD0E0FCE493A3C0E0E493C0E022C0E0C3
:101EE300C3E49396087401939618400FE4936670C5
:101EF3000808740193661870007019A3A3C3E493D0
:101F030096087401939618A3A3400DD0E0D0E0D0B7
:101F1300E0021ED1A3A3A3A3A3A3D0E022C0E0C0E9
:101F2300F088F0E4936670080874019366187000F3
:101F3300A8F0A3A3700BD0F0D0E0D0E0D0E0021E55
:101F4300D1A3A3D0F0D0E022755FE87560F475618A
:101F5300807562FD7563E87564F47565E87566F40C
:101F6300756700756800756900756A0022C082C0D4
:101F730083E56165637004E56265647006855F638C
:101F8300856064856382856483E9F0A385826385C4
:101F9300836478671224DB022ED574F1121CA474B7
:101FA300FE121C4D851482851583ECF0A3EDF08A97
:101FB300088B097867E62508FA08E63509FBC3EAC2
:101FC3009496EB9408400302208585630A85640B8D
:101FD30085610E85620FE50EC3950AF8E50F950B33
:101FE300F9C3E50898E50999500885080C85090D9A
:101FF3008004880C890DE508C3950CFEE509950D51
:10200300FF780C121DEF7402121C98E0FCA3E0FD94
:10201300AA0AAB0B1225687402121C63EE7001EF5F
:1020230060328E0A8F0B780A121DEF7402121C980D
:10203300E0250CFCA3E0350DFDAA5FAB601225681B
:102043007402121C63785FE62EFA08E63FFB8A638C
:102053008B64801EE50A2508F8E50B3509F98863CA
:102063008964E50E687003E50F697006855F638513
:1020730060647867E62508F608E63509F6756900B1
:102083008011E569700D7903122CB37900121F706A
:102093007569017402121C637F08021D0474F11236
:1020A3001CA490DE0EE0F5087403F090DE11E0A2AC
:1020B300E05003022148A867A968E87001E9607B42
:1020C300C3E89440E994004008750A40756A0180AA
:1020D30006E8F50A756A00AE65AF6685610E85622E
:1020E3000F850A0CE50EC39EF8E50F9FF9C3E50CB7
:1020F30098E499A2D265D0334008EEFAE50EC39A6C
:10210300F50AA90AEEFAEFFB1225AD7401F0850A70
:102113000C7867C3E6950CF608E69400F6EE250AFC
:10212300F8EF3400F988658966E50E687003E50FFA
:10213300697012855F65856066800AE56A60067569
:102143006A007401F0E50890DE0EF002209B74F53E
:10215300121CA47E007F007517FFD2817A147B00C6
:10216300123BF6C2817AE87B03123BF6C282C2F9C4
:1021730075F901A2F950FCC2F975F946A2F950FCB0
:10218300D282C282C2F975F990A2F950FCC2F975E4
:10219300F902A2F950FCC2F975F900A2F950FCE565
:1021A300F9F509C2F975F900A2F950FCE5F9F5084A
:1021B300D2827808121E95000002000525C8212549
:1021C30025C821CF21AE08AF09751706EE7001EFC0
:1021D3006003022261D28112227BD29743FE8012D6
:1021E3003A18123A217A887B13123BF6C2817AD0CD
:1021F3007B07123BF6C282C2F975F910A2F950FCB3
:10220300C2F975F940A2F950FCC2F975F900A2F9B7
:1022130050FCE5F9FAD28274846A70067E207F2529
:10222300803C12227BC29743FE8053F4FBD292433D
:10223300FE0453F4FDC29143FE02121A35121A57DB
:102243007901121A4E790112226CEE7001EF7005BA
:10225300790012226CEE7001EF6003751700EEFA3D
:10226300EFFB80007F04021D04121A511222878A99
:10227300088B09AE08AF092253F4BFD29643FE4040
:1022830053F47F2274F8121CA47E007F007901129C
:102293001A547981121A687A327B00123BF67968F4
:1022A300121AB2121A05121AB6E9F508121AB61260
:1022B3001A257900121A54E508121E36000901DEA8
:1022C3002211E42281E82285EE2289F4228D04235F
:1022D30091F822A5FC22B500230D237E107F1180E7
:1022E300297E1180F87E107F25801F7E307F248019
:1022F300197E3180F87E1180EE7E3080067E31803B
:10230300027E407F257901121A54EEFAEFFB023761
:102313007C74F3121CA4E535FA7015752949752AE6
:10232300F1752B0085272C85282D75350202380879
:1023330074026A70F81224B8121E9500000200009D
:10234300004C2300014C2330231224C9850C8285C1
:10235300820AA827A9287001E47008E8950AFEE913
:102363009400FF880889097582497583F18010C23A
:10237300F9E0F5F9A3A2F950FCEB1B70F2D282E568
:10238300087002E50960A6C2827420655170047466
:102393002565526014750DC8A285500D7A057B0022
:1023A300123BF6150DE50D70EFC3E508950AF50828
:1023B300E5099400F509AB0C800AC2F9E0F5F9A32D
:1023C300A2F950FCEB1B70F2C3E5089EF508E50982
:1023D3009FF509EEFB80A274F3121CA4E53560039C
:1023E3000224B51224B8121E95000002000000FA60
:1023F300230001FA23A3241224C9A827A9287001C2
:10240300E47004E8FEE9FF880A890B750849750939
:10241300F1801FC2F975F900A2F950FCE5F98508AE
:1024230082850983F0A3858208858309EB1B70E30A
:10243300D282E50A7002E50B6066C28274206551A0
:102443007004742565526014750DC8A285500D7A09
:10245300057B00123BF6150DE50D70EFE50C121E22
:102463000001028F24842479246E24C2F9A924E96B
:10247300F5F9A2F950FCC2F9A926E9F5F9A2F95038
:10248300FCC2F9A825E8F5F9A2F950FC7825122435
:10249300DBC3E50A9EF50AE50B9FF50BEEFB808C8B
:1024A300752949752AF1752B0085272C85282D75EB
:1024B3003501023808AA23AB2474C05AF50874FF07
:1024C3005BF509780822EA5403F50CEA543C13132C
:1024D300543FFE7F0022786BE62401F608E63400C1
:1024E300F622C082C08375D22874F1F5D374DE90CE
:1024F300F12AF0742690F12BF0E490F12CF0744063
:1025030090F12FF0742090F12EF090F134E0541FED
:10251300F0745090F137F0742090F136F074F3902A
:10252300F138F0743D90F139F074DF90F13AF074C2
:10253300F990F13BF0E490F13CF0740290F13FF03C
:10254300741190F13EF074DF90F140F074F990F162
:1025530041F0E490F144F0741A90F147F074109054
:10256300F146022ED474F8121CA47408121C98129B
:10257300320BED90F130F0EC90F131F0EB90F13261
:10258300F0EA90F133F0E890F135F0E9541FC0E040
:1025930090F134E054E0FAD0E04AF075D60475D7F0
:1025A30004E5D6A2E240FA02377CC082C083EB90F6
:1025B300F128F0EA90F129F0E990F12DF075D602B7
:1025C30075D702E5D6A2E140FA022ED5C082C083B8
:1025D300EB90F142F0EA90F143F0E990F145F0908D
:1025E300F13DF0E490F148F0E5A9FA43A901C2C036
:1025F30075D1EFD2B875D61875D708E060FDC2B8AB
:102603008AA9022ED5C0E0C0D0C082C083C2C0E573
:10261300D1A2E4500975D1EF740190F148F0D08351
:10262300D082D0D0D0E03274F6121CA47508EA75BB
:10263300093C750A807808121DEB7406C3946BFC81
:1026430074F494F3FD796B7AF37B00123C357403D5
:10265300121C6375476B7548F3754902754AF47527
:102663004B02754CF4754D02754EF4754F0275505F
:10267300F475089F750900750A007808121DEB7C34
:10268300027D007477C3946B74F394F3F9740C2490
:102693006BE934F37977FA7B00123C357403121C2F
:1026A300637508F97808121DEB7C107D0074E6C38E
:1026B300946B74F394F3FB7847E6247BF50808E600
:1026C3003BA908FA7B00123C357403121C637F0399
:1026D300021D041239C8123A2BD2A4755100755247
:1026E300001221518A518B52E517700A123A587918
:1026F30080121A68800EE5517001EB7007123A5888
:10270300C2A4D2A312262A53F4FED29043FE01D2CE
:10271300AF80061235F7851716E516121E00000660
:10272300472733274E274727472738273D27422761
:10273300121ABA8016122B3D8011122C71800C12C2
:10274300354080077AFA7B00123BF6E517FEE51663
:102753006E60C6E516121E000402722765276A27FB
:102763006F27122B118008122C588003123A2BEE7C
:10277300121E360004008627048B270590270616B1
:10278300271927121A57808E122A2A8089122BD1D1
:102793008084C082C083E522121E360003C6B5279B
:1027A300C7AB27CBB027BA2712294C800D1223DAE7
:1027B30080081229D38003753504022ED5C082C048
:1027C30083E522121E360009C5F227C8E827C9F798
:1027D30027CAED27CFFE27D00728D10C28D21128EE
:1027E300D516281B281228338031122314802C126B
:1027F30029EA80277900121A688020A825E8F912AF
:102803001A4E8017122A0E8012122A1C800D122AC9
:102813000080081235A78003753504022ED575355F
:1028230004227535042275350422753504222222CB
:1028330074F8121CA4A825E8121E360003004B28C6
:1028430001882804BC289728E535FA7015752949AD
:10285300752AF2752B00752C08752D00753502024B
:10286300294974026A600302294990F24DE0A2E00B
:10287300400302294990F249E06005D2A4022949A4
:10288300C2A4022949E535FA701E74306527700227
:10289300E5286006753504022949752951752AF220
:1028A300752B00752C3080B174026A6003022949CC
:1028B300740790F281F0022949E535FA700C740827
:1028C30065277002E52870CC808374026A70779064
:1028D300F24DE0FBF4FCE5805CC0E090F249E05B84
:1028E300FAD0E04AF58090F24EE0FDF4FEE5905E0A
:1028F300C0E090F24AE05DFAD0E04AF59090F24FE2
:10290300E0FFF455A0C0E090F24BE05FFAD0E04A5C
:10291300F5A0EC55F3F5F3EB45FDF5FDEE55F4F5B8
:10292300F4ED45FEF5FE741F5FFBA2E0E492E0C008
:10293300E074185B1313543FFAD0E04AF455F5F5ED
:10294300F5EB45FFF5FF02377CC082C083A825E87D
:10295300121E000301CD295E297229752900752AEB
:1029630000752B00752C00752D00753501805E797F
:10297300217A007B0189298A2A8B2B752C048A2DC5
:10298300E580121C17E590C0E0A929AA2AAB2BE920
:10299300240109EA3400FAD0E0121C17E5A0C0E0D4
:1029A300A929AA2AAB2BE924020909EA3400FAD09F
:1029B300E0121C17A929AA2AAB2BE9240309090948
:1029C300EA3400FAE4121C1780A0753504022ED5F0
:1029D300E5357012752916752A00752B01752C01C2
:1029E300752D0075350122E5357011E5277002E577
:1029F30028600475350422A825E8F51722740565B7
:102A0300167004122BE422122A4C227405651670E8
:102A130004122C3A22122AE5227405651670041258
:102A23002C5822122B1122C082C083D281123A2B3E
:102A3300123A0F74E055FC4411F5FC75FA00C2819B
:102A43001224E5121F4B022EC9C082C083E535FA5A
:102A5300700CA825E890F283122C26022AE2740255
:102A63006A707C90F283E06401700890F288E090D1
:102A7300F284F0C282D291A28540FCA28550FCC2AE
:102A830091C2F975F900A2F950FCA28540FCC2F984
:102A9300A827E82402F5F9A2F950FCA28550FCC24C
:102AA300F9A825E8F5F9A2F950FCC2F9A827E8F539
:102AB300F9A2F950FC7582887583F2800AC2F9E0A5
:102AC300F5F9A2F950FCA3AA27AB2874FF2AF874DE
:102AD300FF3BF988278928EA7001EB70E0D2820274
:102AE3002ED5C082C08390F284E0701FC282D2913F
:102AF300A28540FCA28550FCC291C2F975F901A2DE
:102B0300F950FCD282740290F282F0022ED5C08278
:102B1300C08390F284E0701FC282D291A28540FCF0
:102B2300A28550FCC291C2F975F902A2F950FCD2F8
:102B330082740390F282F0022ED574F7121CA4C2A1
:102B4300AF90F282E0640270541220A07A00C28235
:102B5300D291A28540FCA28550FCC291C2F975F9BD
:102B630003A2F950FCA28540FCC2F975F900A2F951
:102B730050FCE5F9FEC39408401ED2AFEEF97A8803
:102B83007BF21225CFC2AFD28279007C887DF2EE30
:102B9300FA7B00121F9D8005EE7025D282D2AF0210
:102BA30033DDC2F975F900A2F950FCE5F9C0E08AFA
:102BB30008E5082488F582E434F2F583D0E0F00ACE
:102BC300EE1E70DED28279007C887DF280C3C082E3
:102BD300C0831224E5121F4B122CBC123647022E5F
:102BE300C9C082C083E535FA7012A825E890F28344
:102BF300F0A827E890F287122C26802474026A70CA
:102C03001F90F288E0FA90F283E0121E0000012385
:102C13002C1E2C182CEA90F2848004EA90F285F0A2
:102C2300022ED5F0752988752AF2752B0085272C7D
:102C330085282D75350222C082C08390F284E0700E
:102C43001112367590F285E0F9122D50740290F24C
:102C530082F0022ED5C082C08390F284E0700C1201
:102C63002D7B123663740390F282F0022ED5C0825C
:102C7300C083C2AF90F282E06402702F90F286E0CC
:102C8300602678677498C396FA74080896FBC3EABB
:102C93009407EB9400400F7901121F707901122CF5
:102CA300B3E0F9121F70E4F01220A0D2AF022ED5C8
:102CB300121F707900121F702212375312384E7A86
:102CC3002A792312383553FEFD7A007900123835FC
:102CD30079147A477B0012379E2274F8121CA4C21F
:102CE300AF7A8B7BF212369BD2AF793E123818E95A
:102CF300FE60571237C3E9547FF96005EEC399505C
:102D03000C79471237817947123781803D74052941
:102D1300FA74032AFEE490F288F0EA90F289F0E470
:102D230090F28AF0E990F28FF0C282C2F975F9301D
:102D3300A2F950FC7A907BF21225CFD28279007CE3
:102D4300887DF2EEFA7B00121F9D02377C1238C198
:102D53007ADD7B2C1238E379007A3E7BF3123B4D0C
:102D63007A3E7BF3123AEF794212378174E055FCD5
:102D73004412F5FC75FA00221238CF7945123781D7
:102D8300123A2B22C082C0838005E490DE14F090B7
:102D9300DE14E0A2E0504890F314C3E0940DA3E0E6
:102DA3009404503B90DE16E0FA800B122FBFF09094
:102DB300F314122FBFF0EA1A60D090DE28E0C0E0CF
:102DC30090F310123535D0E0F090F310E0644B70BF
:102DD30004A3E0640490F31070D1E4F0A380CF0265
:102DE3002ED5C082C08390F31DE0700D90F31AC3FB
:102DF300E09440A3E09400406590DE11E0A2E0403F
:102E0300E590F31A12320BC3E89441E994004004AD
:102E13007A40800EE8FA800A122FBFF090F31A125C
:102E23003242EA1A602190F3181230E9E090DE286A
:102E3300F090F318E0644B7004A3E0640490F3187B
:102E430070D6E4F0A380D4740190DE11F090F31AED
:102E5300E07002A3E0708FE490F31DF0808E807227
:102E6300C082C08374FE121C4D122EDA8514828533
:102E73001583F0744B68700374046990F312700542
:102E8300E4F0A38003122FBF123236122EDAC0E011
:102E93007401121C98D0E0F0744B687003740469D9
:102EA30090F3127005E4F0A38003122FBF123236A1
:102EB3008514828515831237D6123BF6E490F31CF2
:102EC300F0740202382F740290F284F0740190F2CD
:102ED30082F0D083D0822290F312E0F8A3E0F9E8E5
:102EE30024E8F582E934F4F583E022C082C083C28A
:102EF30082A2854003022FBA123211603C123220A3
:102F03007004A3E0640490F3127005E4F0A380035B
:102F1300122FBF123236A28F50FC12321B7004A341
:102F2300E0640490F3127005E4F0A38003122FBF52
:102F3300123236A28F407D80FA1232207004A3E051
:102F4300640490F3127005E4F0A38003122FBF1200
:102F53003236A28F50FCE5F9C0E01230E6D0E01221
:102F6300324C7004A3E0640490F3167005E4F0A3FC
:102F73008003122FBF1232547004A3E0640490F351
:102F8300127005E4F0A38003122FBF123236A28F12
:102F930050FCE5F9C0E01230E6D0E012324C700488
:102FA300A3E0640490F3167005E4F0A38003122FEA
:102FB300BF123224123202D282022ED5E02401F053
:102FC300A3E0340022C082C083C282A285400302F0
:102FD30030E3123211603C1232207004A3E0640427
:102FE30090F3127005E4F0A38003122FBF12323660
:102FF300A28F50FC12321B7004A3E0640490F312FE
:103003007005E4F0A38003122FBF123236A28F4063
:103013007D80FA1232207004A3E0640490F31270EE
:1030230005E4F0A38003122FBF123236A28F50FCA7
:10303300E5F9C0E01230E6D0E012324C7004A3E0B0
:10304300640490F3167005E4F0A38003122FBF12FB
:1030530032547004A3E0640490F3127005E4F0A307
:103063008003122FBF123236A28F50FCE5F9C0E065
:103073001230E6D0E012324C7004A3E0640490F303
:10308300167005E4F0A38003122FBF12322490F3CD
:1030930020E024FEF8A3E034FFF9E87001E9603D85
:1030A300C28F90F312E024E8FAA3E034F4FB8A829F
:1030B3008B83E0F5F990F312E0644B7004A3E064B2
:1030C3000490F3127005E4F0A38003122FBF1232B1
:1030D30036A28F50FC1233FA7001E970C312320228
:1030E300022FBA90F316E02434F8A3E034F9F988F8
:1030F30082898322C082C083C282A28540030231B7
:10310300FF123211603C1232207004A3E064049079
:10311300F3127005E4F0A38003122FBF123236A21C
:103123008F50FC12321B7004A3E0640490F31270FE
:1031330005E4F0A38003122FBF123236A28F407D25
:1031430080FA1232207004A3E0640490F312700535
:10315300E4F0A38003122FBF123236A28F50FCE596
:10316300F9C0E01230E6D0E012324C7004A3E06400
:103173000490F3167005E4F0A38003122FBF1232FC
:10318300547004A3E0640490F3127005E4F0A38088
:1031930003122FBF123236A28F50FCE5F9C0E012A2
:1031A30030E6D0E012324C7004A3E0640490F316CE
:1031B3007005E4F0A38003122FBF12322490F32290
:1031C30012320BE87001E96030C28F75F900A28FEB
:1031D30050FCE5F9C0E01233E2D0E012324C700447
:1031E300A3E0640490F3167005E4F0A38003122FA8
:1031F300BF1233F37001E970D0123202022FBA12F8
:103203002DE5E490F31CF022E0F8A3E0F92290F31B
:103213001EE0C28F90F31222C28F90F3121232601B
:103223002212322822F090F31AE02401F0A3E034B2
:1032330000F02212323A22F090F31412324222E0CA
:1032430024FFF0A3E034FFF022F090F316E0644B88
:1032530022123228C28F90F31212326022123530BA
:10326300F5F990F312E0644B2274F7121CA4C282A6
:10327300A28540030233D9123211603C123220700E
:1032830004A3E0640490F3127005E4F0A380031236
:103293002FBF123236A28F50FC12321B7004A3E0F0
:1032A300640490F3127005E4F0A38003122FBF129D
:1032B3003236A28F407D80FA1232207004A3E0647C
:1032C3000490F3127005E4F0A38003122FBF1232AF
:1032D30036A28F50FCE5F9C0E01230E6D0E012329E
:1032E3004C7004A3E0640490F3167005E4F0A3802B
:1032F30003122FBF1232547004A3E0640490F3123C
:103303007005E4F0A38003122FBF123236A28F5050
:10331300FCE5F9C0E01230E6D0E012324C7004A3B1
:10332300E0640490F3167005E4F0A38003122FBF4A
:10333300123224C28F75F900A28F50FCE5F9FA12FC
:1033430030E6EA12324C7004A3E0640490F3167082
:1033530005E4F0A38003122FBF123224C28F75F944
:1033630000A28F50FCE5F9F5081230E6E5081232A9
:103373004C7004A3E0640490F3167005E4F0A3809A
:1033830003122FBF123224EAF9E42508F890F3223E
:103393001237D6E89AE99B4004EAF8EBF9E87001A2
:1033A300E96030C28F75F900A28F50FCE5F9C0E0E7
:1033B3001233E2D0E012324C7004A3E0640490F3C1
:1033C300167005E4F0A38003122FBF1233F37001CC
:1033D300E970D0123202D28280007F02021D049073
:1033E300F316E02434FAA3E034F9FB8A828B8322B8
:1033F3001232281233FA22E824FF18E934FFF9E8DD
:1034030022C082C08390F31CE0600302351290F364
:1034130014C3E09403A3E094005003023512123561
:103423001A90F31F12351E7004A3E0640490F31284
:103433007005E4F0A38003122FBF12323690F31FFE
:10344300E0A2E75004780F80027812E84420F5FCEC
:10345300E0544090F31DF090F31FE0542090F31ECE
:10346300F090F31FE0541FF0121E0000030535FB1C
:10347300347A34C034C03412351A90F32012351E16
:103483007004A3E0640490F3127005E4F0A38003D6
:10349300122FBF12352290F32112351E7004A3E0C0
:1034A300640490F3127005E4F0A38003122FBF129B
:1034B300323690F320E02402122FC2804B12351AC9
:1034C30090F32212351E7004A3E0640490F312708B
:1034D30005E4F0A38003122FBF12352290F32312C9
:1034E300351E7004A3E0640490F3127005E4F0A3A6
:1034F3008003122FBF12323690F3207402F0A3E43C
:10350300800690F320E4F0A3F0740190F31CF09094
:10351300F31CE0F9022ED512352922F0023265128E
:10352300323A1235292290F31212353022123535F0
:10353300E022E024E8F8A3E034F40230F174F81256
:103543001CA490DE0EE0FE7404F0122D878003129B
:103553002EEE123404E9604490F32012320B75838B
:10356300F3758214C3E098A3E099403090F31FE011
:10357300121E360005005235018935028E3503933C
:10358300351F98359D35122FC880C71230F780C27A
:1035930012326C80BD122E6380B880FEEE90DE0E78
:1035A300F002377CE535704BE5277002E528700F94
:1035B3007825E654FDFA08E6FBEA7001EB60047532
:1035C300350422D282D2817A027B00123C0EC28160
:1035D300A825E8701753F3EFC28443FD10C2827A23
:1035E300647B00123BF6D28243F310227A647B00A1
:1035F300123BF622C082C08375F80075FC3175FA60
:103603000090F310E4F0A3F090F312F0A3F090F322
:1036130014F0A3F090F316F0A3F090F318F0A3F0D6
:1036230090F31AF0A3F090F31CF090F31DF090F3D5
:103633001EF090F31FF090F320F0A3F090F322F02C
:10364300A3022ED443F14043F40243F508D2DE75BE
:10365300E64175E50075E7007ACD7B3612394722DE
:10366300C082C083C2B975E40090F326E0F5B902C5
:103673002ED5C082C08375E200756B00756C007532
:103683006D00756E00E5B990F326F043B902C2C12F
:10369300D2B975E401022ED5C082C08390F325E030
:1036A3008A828B83F090F324E08A828B83A3F0A831
:1036B3006DA96EE88A828B83A3A3F0A86DA96EE936
:1036C3008A828B83A3A3A3022ED4C082C08374F007
:1036D30055E4FC74505C64507036E5DC90F325F0DF
:1036E300E5DD90F324F0E5E2E5E3C0E0E0FAD0E0C5
:1036F300C39A5008856B6D856C6E800F786BE624DA
:1037030001FA08E63400FB8A6D8B6E1224D98037E8
:10371300ECA2E65014E5DC90F325F0E5DD90F3240C
:10372300F0856B6D856C6E801EA2E4501A1224D94D
:1037330018E6FA08E65403FBEA7001EB7009A86B7C
:10374300A96CE990F286F0ECF454F1F5E4022ED57D
:10375300D28253F3FDC28143FD0253F47FD29743D8
:10376300FE80D281C2977A3E7BF3123A7F22C2F95E
:1037730089F9A2F950FCA9F9227F01021D04C28232
:1037830012380F2274F8121CA4EAFEEBC282441012
:10379300F9123771EE12382102377C74F7121CA428
:1037A300EAFEEB89081237BAF509EEF912377112FE
:1037B300380DA9090233DDC2824420F91237CB2226
:1037C300C282793012382222123771E922D282D092
:1037D300E0FE22E0FAA3E0FB221237717900221205
:1037E3003771EEF91237712274F8121CA4E9FEC284
:1037F3008279581237FC021D041237CBFFEEF912FF
:1038030038290238137F06021D04A9081238292219
:10381300EFF97F0122C28274804912382122F91202
:1038230037DC12382922123771D28222121C63022A
:103833002ED5EEC0E0EAFE1238400237D0C28274C1
:10384300C049F912384A221237E22274F8121CA432
:103853007A3E7BF3123B0FD281D282C2977A4C7BA2
:1038630004123BF653FDDFD2977AC87B00123BF676
:10387300C2817E64C282A285400B7A0A7B00123B1E
:10388300F61EEE70F1D282EE602F7E437FF380113D
:10389300A3E0F97B0012379EEE2402EF34000E0EF4
:1038A300FF8E828F83E0FA70E77A467B00123787B8
:1038B300E96485700479008002790102377C75F030
:1038C30005E9A424D4FA792E1238352279881237DF
:1038D300EB7A3E7BF3123B2D7A3E7BF3123B0F22B6
:1038E300C082C0838A828B8379017A3E7BF3123B49
:1038F3004DAC82AD837A3E7BF3123AB97A3E7BF3C9
:10390300123AEF79881237EB022ED5748055C6FA36
:10391300740169701853BEFBE5BEA2E550FA744901
:103923004AFA8AC6E5C66A70FB43BE0422E97013ED
:1039330053BEFBE5BEA2E650FA8AC6E5C66A70FB33
:1039430043BE0422C082C083A2AFE492E0F8C2AFB8
:1039530090F32712397B022ED5C0E074F2121D3C7E
:1039630090F327E07002A3E0600990F3271239A2D5
:10397300121CA27F01021D9BEAF0A3EBF0E8A2E078
:1039830092AF22C0E074F2121D3C90F329E0700262
:10399300A3E0600990F3291239A2121CA280D4E09B
:1039A300F8A3E0F583888222C0E074F2121D3C90F4
:1039B300F32BE07002A3E0600990F32B1239A212FB
:1039C3001CA2023976123BEB53F5EFC2A443FF105E
:1039D30053F5F7C2A343FF08123A4F53F4F7D293B8
:1039E30043FE08123A0F53F3FDD28143FD0253F411
:1039F300BFC29643FE40123A1853F47F53FE7F43EF
:103A0300F680123A2153F1FD43F1012253F3FBD225
:103A13008243FD042253F4FBC29243FE042253F477
:103A2300FD53FEFD43F60222123A4FC28043F320B8
:103A330043F31043F308740755C6240FFA43FB807E
:103A430075F80074204AF5FC75FA532253F3FED23D
:103A53008043FD0122D28053F3DF53FDDF438F20E8
:103A630053F3EF53FDEF438F1053F3F753FDF74336
:103A73008F0853F3FB53FDFB438F042274F7121C8F
:103A8300A47508017509008A828B83A3E078081264
:103A93001C3A8A828B83E06401600479FF8014E519
:103AA30008F4FA55F4F5F4EA5590F590EA55FEF565
:103AB300FE79000233DD74F8121CA4A2AFE492E095
:103AC300FEC2AF8A828B83E064017016A3E0123BCF
:103AD300CFECF0A3EDF0123B2DEEA2E092AF790014
:103AE3008007EEA2E092AF79FF02377CC082C083E9
:103AF3008A828B83E06401700E439A10A3A3E0458E
:103B03008DF58D7900800279FF022ED5C082C083A6
:103B13008A828B83E06401700CA3A3E0F4558DF5D6
:103B23008D7900800279FF022ED5C082C0838A82FC
:103B33008B83E06401700EA3A3E0F4558AF58AC277
:103B4300EB7900800279FF022ED5C082C083E9128F
:103B53001E0000016B3B5D3B6F3B8A828B83E064FD
:103B6300017005438C02801079FF800E8A828B835B
:103B7300E0640170F3538CFD7900022ED5C0E0742C
:103B8300F1121D3CE58A603FA2EB503B7E007508B5
:103B930001750900EE7808121C3AAA08E58A5A60F2
:103BA3001DE58D5A6018EE123BCF123BE0E58270A3
:103BB30002E5836009EAF4558AF58A121CA20EEE27
:103BC300C3940840C9C2EB7F02021D9BC333F8E4D0
:103BD30033F9E8242DF582E934F3F58322123BE42B
:103BE30022E0F8A3E00230F1790012390E53C6F84F
:103BF300E5C622800C00000000EA24FF1AEB34FF24
:103C0300FBC3EA9402EB940050EB2274F8121CA459
:103C1300EAFEEBFF80077AE87B03123BF6EEF8EF50
:103C2300F974FF281E74FF39FFE87001E970E70299
:103C3300377C74F3121CA489088A098B0A8C0C8DB7
:103C43000D740D121C98123C93802AA908AA09AB83
:103C53000A121BFDC0E0ECF9EDFAEEFBD0E0121CFA
:103C630017E5082401F508E5093400F509EC2401FA
:103C73000CED3400FD123C837001E970CE0238086C
:103C8300A80CA90D74FF28F50C74FF39F50DE82273
:103C9300E0F9A31237D6AC08AD09AE0A89088A0940
:103CA3008B0A22FFFF80010102000030F736F8463D
:103CB3008547144A3F4C5A4F0353115610570E5819
:103CC300030C6044002009212D222C232A243225B1
:103CD300310000CC0508009527C027212825282975
:103CE300282D28312832281201000200000020511B
:103CF30004A21600010102030109022700010100C9
:103D030080320904000003FFFFFF0407058402401B
:103D1300000507050402400005070583024000056E
:103D23000403090424035400650078006100730050
:103D3300200049006E0073007400720075006D006E
:103D430065006E00740073001803430043002000F5
:103D5300440065006200750067006700650072003B
:103D630012033000300030003000300030003000EB
:103D730030000C0343004500420041004C0086F331
:023D830010101E
:040000050000189847
:00000001FF
