:020000040000FA
:0600000002016802180372
:03000B0002180BCD
:03001300021813BD
:03001B0002181BAD
:030023000218239D
:03002B0002182B8D
:03003300020AC6F8
:03003B0002183B6D
:030043000218435D
:03004B0002184B4D
:030053000218533D
:03005B0002185B2D
:030063000218631D
:03006B00020B671E
:03007300021873FD
:03007B0002187BED
:03008300021883DD
:03008B0002188BCD
:1000930012010002000000205104A21670010102A7
:1000A300030109021200010100803209040000006B
:1000B300FFFFFF00040309042403540065007800D4
:1000C30061007300200049006E0073007400720029
:1000D30075006D0065006E00740073001803430023
:1000E300430020004400650062007500670067005C
:1000F3006500720012033000300030003000300021
:10010300310037003000AE00000000000080FB1219
:100113000171B90003020162E479107804B80002A6
:100123008004F709D8FCE490F00278197901800281
:10013300F0A3D8FCD9FA90F000AA82AB839014B153
:10014300780179018015E493A3AC82AD838A828B15
:1001530083F0A3AA82AB838C828D83D8E9D9E7127B
:10016300030212010D75D00075818102011279011C
:100173002243AE0322BB0102E722C082C0838982ED
:100183008A83BB0003E08002E493D083D08222BB46
:10019300000EC082C0838A838982F0D083D08222FA
:1001A300BB0101F722600C08C6C313C618C613C6E9
:1001B300D5E0F422700422600D18C6C333C608C606
:1001C30033C6D5E0F41822E473D083D082CEC0E0E6
:1001D300EFC0E0C0207808E608C0E0DEFAE473C0B0
:1001E300D074072FD0D0F8D0E0F618DFFAD020D0A3
:1001F300E0FFD0E0FE22C8C0E0E9C0E0A981191900
:10020300E583C7F58319E582C7F582EAC0E0EBC051
:10021300E0ECC0E0EDC0E0EEC0E0EFC0E0C0D0C075
:10022300F0C0207908E709C0E0D8FAE47374072F17
:10023300F8D0E0F618DFFAD020D0F0D0D0D0E0FF2D
:10024300D0E0FED0E0FDD0E0FCD0E0FBD0E0FAD07F
:10025300E0F9D0E0F8D083D082D0E0327903D083C4
:10026300D082E6C0E008D9FAE473D083D082C5F027
:10027300E493A3C5F0C395F0F5F0E493A3C395F01D
:100283004005E5F0048001E475F002A42582F582BF
:10029300E5F03583F583E493A3C0E0E493C0E02263
:1002A300D083D082CCC0E0E493A360061202CD14C5
:1002B30070FAE493A360061202EC1470FAD0E0FC27
:1002C300E493A3C0E0E493C0E022C0E0E493A3D3AB
:1002D3009C5010E493A3C39C400AD0E0D0E0D0E04C
:1002E3000202C0A3A3A3D0E022C0E0E493A36C70F6
:1002F30009D0E0D0E0D0E00202C0A3A3D0E02212F4
:10030300041553F4BF53FEBF43F6407E00A296404C
:10031300030E800B1204CAE964027003E555FE75EF
:10032300550075540075510075520075571A75586C
:1003330006755905755A06755B69755C11755DD24D
:10034300755E11EE60057553008023901893E49356
:1003530064E17016901894E493648C700D90189572
:10036300E493646470047A0180027A008A537547C7
:1003730093754800754909754A01754B09754C0118
:10038300754D09754E01754F097550011205DF7AD8
:10039300177B00120A81755614EE7004E55370231F
:1003A30053F4FED29043FE011204757A327B00129D
:1003B300049EEE60077AC27B0112049E63A008E5E7
:1003C300A080E8D2A475540112180022C008530873
:1003D30080E5C6A2E7E50892E7F50874016970179E
:1003E30053BEFBE5BEA2E550FA74494508FA8AC636
:1003F300E5C66A70FB8015E9701553BEFBE5BEA226
:10040300E650FA8508C6E5C6650870FA43BE04D00F
:10041300082212047B53F5EFC2A443FF1053F5F7F0
:10042300C2A343FF0812046C53F4F7D29343FE08AC
:1004330053F3FBD28243FD0453F3FDD28143FD0208
:1004430053F4BFC29643FE4053F4FBC29243FE04EF
:1004530053F47F53FE7F43F68053F4FD53FEFD4375
:10046300F60253F1FD43F1012253F3FED28043FD23
:100473000122D2AF22C2AF2279001203CF53C6F8B2
:10048300E5C622800C00000000EA24FF1AEB34FFCB
:10049300FBC3EA9402EB940050EB22EEC0E0EFC002
:1004A300E0EAFEEBFF80077AE87B03120486EEF8AE
:1004B300EFF974FF281E74FF39FFE87001E970E754
:1004C300D0E0FFD0E0FE22741855BE131313541F5F
:1004D30012026D0101DE04E104E4047900227901D2
:1004E30022790222EEC0E0EAFE7A007B00801585C5
:1004F3001082851183E0FC18E62CFC08E63400FD2D
:100503008C108D11E54965107004E54A6511602F63
:100513007810E62401F58208E63400F583E069707B
:1005230017AA10AB118A828B83E0FCEA2CFCEB3414
:1005330000FD8C108D118007E06E70B3EE60B0D0BB
:10054300E0FE228547108548117A0079011204E7FD
:100553002274021201CCE9FEEAFF85471085481197
:10056300800D8A828B83A3A3A3A3A3E06E60147A76
:100573000079021204E7EA7001EB6007EE70E3EF23
:100583001F70EC7F020201E274021201CCEAFEEB5F
:10059300FF7A001205547A0279041204E7EA700123
:1005A300EB60158A828B83A3A3E06E70E98A828B4A
:1005B30083A3A3A3E06F70DE80C9EEC0E0C008C0D0
:1005C30009E9FE8547108548117A0079031204E78B
:1005D300EE1E70F5D009D008D0E0FE227A00790132
:1005E3001205548A828B83A3A3A3A3A3A3A3E0A28C
:1005F300E65005754101800375410075400043BE17
:100603008022752E02752F00753500790312084F6D
:100613007512007513002274041201CC90DE0EE0F3
:10062300FFE4F090DE11E0FEA2E4501A7480F0754E
:100633003507E5127002E51360098512828513837D
:100643001201CA753500EEA2E2500AE490DE11F001
:10065300F5350206DAE535FA74026A706590DE163E
:10066300E0F50A782912025FA90A7A207BDE1208D4
:100673006C158115811581850A08120836A929AAE6
:100683002AAB2BE9250A120843E52C7002E52D60FD
:10069300047A4080027A48EA90DE11F0E52C700279
:1006A300E52D7014E5127002E51360098512828549
:1006B30013831201CA753500EF90DE0EF07F04023A
:1006C30001E274066A70098512828513831201CAD6
:1006D300E53560030207C9EEA2E050DC7508217519
:1006E3000900750A01780812025F79087A207BDE17
:1006F30012086C158115811581751200751300742C
:10070300E055211202A30006001F0720A407408E14
:1007130007805D07A0AF07C099075807E5221202BB
:10072300A30006014407033F07053A0707530709D8
:1007330049070B4E075807120D288079120D1C80AC
:1007430074120D10806F121034806A1211048065C8
:10075300120A7880607535048061E5221202A300D5
:1007630005007507067A07087F070A84070C8907BF
:100773005807120B8B803E120D69803912100380CB
:10078300341210D7802F120A7C802A7512CB75136E
:10079300081208CB801F75121575130912091580ED
:1007A300147512577513091209578009751290753C
:1007B30013091209907404653570047A6080027A13
:1007C30040EA90DE11F0E535FA74016A70517E0259
:1007D300A82CA92DC3E89420E994005007E8F50A52
:1007E3007E0A8003750A20782912025FA90A7A20FB
:1007F3007BDE12088F158115811581850A08A929C9
:10080300AA2AAB2BE92508120843120836EE90DE1C
:1008130011F0E50AC3942040030206BB0206A77445
:10082300056A60030206BB8512828513831201CA1F
:100833000206BB782CC3E69508F608E69400F62278
:10084300F9EA3400FA89298A2A8B2B227A00743632
:1008530012086240F97A00743B12086240F9222AB6
:10086300F8E9F60AEAC3940522EEC0E0EFC0E08A95
:10087300828B83E9FFE5811208B86009E0120192D7
:100883001208AD70F7D0E0FFD0E0FE22EEC0E0EF3B
:10089300C0E08A828B83E9FFE5811208B860091200
:1008A3000178F01208AD70F780DBE9240109EA341E
:1008B30000FA1FEF2224FAF8E6FC08E6FD08E6FE3C
:1008C300ECF9EDFAEEFBEF22E52212026DC103E82B
:1008D30008DC08E808E008E4081213702212144C3C
:1008E3002212146522E5536025E554602190189681
:1008F300E493C0E0740193F583D082A3A3A3A3A3DD
:10090300A31209827002E58360041201CA227535BD
:100913000422E52212026DC0022C0924092C0928A5
:10092300091212142212140422E5536023E55460C1
:100933001F901896E493C0E0740193F583D082A3CB
:10094300A3A3A31209827002E58360041201CA22E1
:1009530075350422E5536018E5546014901896E445
:1009630093240A1209777002E58360041201CA22F4
:1009730075350422F8A3E4933400F988828983E46B
:1009830093F8740193F988828983E58222E55360A1
:1009930027E5546023901896E493C0E0740193F51F
:1009A30083D082A3A3A3A3A3A3A3A3120982700248
:1009B300E58360041201CA2275350422E5536018E9
:1009C300E5546014901896E493240C12097770028E
:1009D300E58360041201CA2275350422E5536018C9
:1009E300E5546014901896E493240E12097770026C
:1009F300E58360041201CA2275350422E553602C95
:100A0300E5546028901896E4932410FCA3E49334EF
:100A130000FD8C828D83E493FC740193FD8C828DA5
:100A230083E5827002E58360031201CA22E5536005
:100A330017E5546013901896E49324121209777003
:100A430002E58360031201CAA842E85404600FE57B
:100A530056A2E25009784274FB56F6120605A842E4
:100A6300E85410600FE556A2E45009784274EF563B
:100A7300F612061A22753504227535042222C0089F
:100A8300C009439A02438C107542007543007544B4
:100A9300008A458B46EA90DE0BF08A088B097404C2
:100AA30078081201A8E50890DE07F08A088B09741C
:100AB3000978081201A8E508543E90DE09F0D00930
:100AC300D00822C0E074021201F9E5BEA2E650FA92
:100AD30090DE06E0FAA2E25035A845E890DE0BF07E
:100AE300F508854609740478081201A8E50890DE24
:100AF30007F0854508854609740978081201A8E5B9
:100B030008543E90DE09F090DE01E0D2E0F0784236
:100B1300EA46F690DE02E0F50875090074047808E9
:100B23001201B77842E50846F608E50946F690DE75
:100B330004E0F508750900740978081201B77842D2
:100B430008E50946F6EAA2E0500375440174065A23
:100B53006003754400120A30E58BF4F58BC2E87F1D
:100B630002020230C0E074011201F9E5BEA2E650B0
:100B7300FAE589FEA2E75005C2BD121202EEF4F5B2
:100B830089C2C57F01020230E5237002E524701893
:100B9300A825A92674FF59FBE47001EB700A7402BF
:100BA30065277002E528600475350422E5211202E9
:100BB3006D8002AB0BBE0BDF0BED0BE870EAE5417A
:100BC300600478018002780090F000E8F0A3E4F07C
:100BD300E540604F90F000E0440280437404652ECA
:100BE30070C690F000E4F0A38038E8547FFA7404F0
:100BF300652E70B4EAC3940650AE742E2AFAE854F4
:100C030080600D74072AF8E66403700D7801800B89
:100C1300740C2AF8E6640360F3780090F000E8F0BF
:100C2300A3E4F07404653560207C007DF0AA25748C
:100C33001F5521F9120A80752900752AF0752B00BA
:100C4300752C02752D0075350122E5277002E52804
:100C5300700E7404652E600EE5257002E5266006AD
:100C6300753504020D0D741F552112026D000263C8
:100C73000C7A0C810C960CAA23EA640160037900B8
:100C8300228940E960047905800279067A00120915
:100C9300FF8077AA25EA547FFAAC23EC70E0EAC31D
:100CA300940650BCEA90DE0EF0742E2AFBAC25ECC1
:100CB30054806028E960047C1080027C40EC90DE64
:100CC30011F0E960047C0380027C0074072BF8ECCC
:100CD300F6E960047908802A79078026E960047CB4
:100CE3002080027C80EC90DE14F0E960047C0380B9
:100CF300027C00740C2BF8ECF6E96004790A80029C
:100D030079091209FFE490DE0EF0790122790012CD
:100D13000C4DE970031209BF227901120C4DE970E1
:100D2300031209DF22E5257002E526701AE5277014
:100D330002E5287012A823A924748058FA74FF5975
:100D4300FBEA7001EB600475350422E890DE00F0E5
:100D5300600A7402652E700D752E03227403652ECE
:100D63007003752E022274041201CCAA23AB24EB68
:100D730012026D0102DA0D800D9A0DD30D12054694
:100D83008A298B2A8E2BA929AA2A7B00120178F89B
:100D9300882C8B2D020E7B79001205548A298B2A0D
:100DA3008E2BA929AA2A7B00E924020909EA340027
:100DB300FA120178FC1919AA2AE92403090909EA94
:100DC3003400FA120178F9ECF8882C892D020E7B95
:100DD300EAF91205BD80A98E298E2A8E2B7C00800C
:100DE30072750900740378081201B7784BE6250879
:100DF300FA08E63509FBAE23AF248A828B83E0C071
:100E0300E0EFF8D0E068704AA3E06E7045AE25AF1E
:100E1300268A828B83A3A3E0C0E0EFF8D0E068705A
:100E2300318A828B83A3A3A3E06E70268A828B838D
:100E3300A3A3A3A3E0F508A3E0850829F52A752B4E
:100E4300008A828B83A3A3A3A3A3A3E0F52CA3E02F
:100E5300F52D0C8C08794D784BE7C396F50A0809F4
:100E6300E796F50B7403780A1201A8C3E508950AFF
:100E7300E4950B5003020DE4AC29AD2AAE2BEC4DE7
:100E83004E7005753504801A740465356014A827FF
:100E9300A928C3E8952CE9952D5004882C892D7534
:100EA30035017F040201E274081201CC058105813A
:100EB300E58114F8EAF608EBF61886828B83A3A380
:100EC300A3A3E06026AE4FAF508008EE2404FEEFEC
:100ED3003400FF8E828F83E493FA740193FBE581E0
:100EE30014F8E66A700308E66B70E0750800803C4E
:100EF300749090DE14F07410120FF87003750940AB
:100F03008E828F83A3A3A3E493550A6006E509D2D7
:100F1300E0F509E50990DE15F0EA90DE13F0740CB4
:100F2300250FF87600E490DE0EF00508E58114F84D
:100F33008682088683A3A3A3A3E0FAE508C39A40A5
:100F430003020FEF7A0079051204E78A0A8B0BACD0
:100F53000AAD0BEC7001ED60D1EC2402F8ED340026
:100F6300F9880C890D8882F583E0540FF50E90DE25
:100F73000EF07509008C828D83A3A3A3A3E024073D
:100F8300F50AA3E03400F50B7403780A1201A8AA4A
:100F93000A742E250EF50F750A01750B00E50E7800
:100FA3000A1201B7EC2403F8ED3400F9850C8285AD
:100FB3000D83E0A2E74003020EF3744890DE11F0C4
:100FC3007408120FF870037509408E828F83A3A3F0
:100FD300E493550A6006E509D2E0F509E50990DED8
:100FE30012F0EA90DE10F07407020F2315811581C9
:100FF3007F080201E2F088828983E05403640122BE
:10100300E5237002E5247012E5257002E526700AD7
:10101300740165277002E52860047535042275297B
:101023002F752A00752B01752C01752D007535015F
:101033002274041201CC7402652E601BE525700234
:10104300E5267013E5277002E528700B782308E680
:10105300FBE47001EB600575350480757A00790156
:101063001209FFA823E860587A00F91205548A0888
:101073008B09AE08AF09EE7001EF603F752E04A82F
:1010830023E8F52F7509008E828F83A3A3A3A3E022
:10109300FAE509C39A503374302509F508F8760048
:1010A3007A0079041204E78A828B83A3A3A3E0A8BE
:1010B300086670EC120EAA050980CC753504800A07
:1010C300F52F752E03790312084F7A00790212095E
:1010D300FF020EA57404652E7018748165217012C9
:1010E300E5237002E524700A740165277002E52880
:1010F300600475350422A825E82430F989290210F3
:101103002474021201CC7404652E700E74016521DF
:101113007008E5277002E52860057535048042A84C
:1011230023E8FBA825E8FAA92F12058B8A088B0967
:10113300A808A909E8FEE9FFE87001E960DCAA252F
:1011430079031209FFA823E8C0E0A825E82430F8B2
:10115300D0E0F6EEFAEFFB120EAAAA2579041209E3
:10116300FF7F020201E2745390F002F074BE90F02C
:1011730003F074FC90F004F0744390F005F074BE37
:1011830090F006F0740190F007F0747590F008F099
:10119300748790F009F0740190F00AF074E590F010
:1011A3000BF0744490F00CF0747090F00DF074F345
:1011B30090F00EF0742290F00FF0D2BD90F0107406
:1011C30002F0A374F0F0758202F5831201CA22E5DE
:1011D300407003790022C2AF12120275440090DE00
:1011E30001E0D2E2F07A0A7B0012049E90DE01E075
:1011F300C2E2F0C2BDC2C575897FD2AF790122E4D4
:1012030090F007F090F008F090F009F090F00AF0F9
:1012130022E5257002E526600302133F79217A0057
:101223007B0189298A2A8B2B752C088A2D8B35AC57
:1012330051EC120192A952E9C0E0A929AA2AAB2BC9
:10124300E9240109EA3400FAD0E0120192E553607F
:1012530013901896E493C0E0740193F583D082E46D
:1012630093FA80027A00EAC0E0A929AA2AAB2BE903
:1012730024020909EA3400FAD0E0120192E553602E
:1012830014901896E493C0E0740193F583D08274AC
:101293000193FA80027A00EAC0E0A929AA2AAB2BBB
:1012A300E92403090909EA3400FAD0E0120192E5BE
:1012B300536015901896E493C0E0740193F583D0BE
:1012C30082A3A3E493FA80027A00EAC0E0A929AAE0
:1012D3002AAB2BE92404F9EA3400FAD0E012019294
:1012E300E5536016901896E493C0E0740193F58378
:1012F300D082A3A3740193FA80027A00EAC0E0A922
:1013030029AA2AAB2BE92405F9EA3400FAD0E01222
:101313000192E554C0E0A929AA2AAB2BE92406F9D6
:10132300EA3400FAD0E0120192A929AA2AAB2BE9E8
:101333002407F9EA3400FAE412019222E553602CFF
:10134300E5546028901896E493C0E0740193F58304
:10135300D082A3A3A3A3E493F8740193F9888289A9
:1013630083E5827002E58360031201CA22E535FA40
:101373007026E554700AE527700474046528600537
:101383007535048003753502752C00752D04752998
:1013930000752AFB752B002274026A706374FB903C
:1013A300F012F0E490F013F074DF90F014F074AFE7
:1013B30090F015F0740490F016F0E490F017F074C8
:1013C3001290F018F0744290F019F074F0F5D5759E
:1013D300D412120478E5AEA2E740FA43D601A82559
:1013E300E8C333F5AD75AC00740755C6F87420B87F
:1013F30000028004C313D8FCF5AB12017412047508
:1014030022C008C009E535703B852508852609C338
:10141300E5089420E509940040057535048025E529
:101423002770047404652860047A0480027A018AB0
:1014330035740A78081201B7F52985092AF52BF5C1
:101443002C752D04D009D00822752C00752D00E5CC
:10145300277002E52860047535042275350175543B
:101463000122E5357030120478744090DE11F07A71
:101473000A7B0012049EC290C2A4AA23AB24EA7082
:1014830001EB600312049EA825E8F55579031214B5
:10149300A112149A80FE2253C9FB43C90822740384
:0E14A30059C0E074FC55C9FAD0E04AF5C922E0
:04000005000001688E
:00000001FF
