:10000000020168021803FFFFFFFFFF02180BFFFF4A
:10001000FFFFFF021813FFFFFFFFFF02181BFFFF88
:10002000FFFFFF021823FFFFFFFFFF02182BFFFF58
:10003000FFFFFF020AC6FFFFFFFFFF02183BFFFFA3
:10004000FFFFFF021843FFFFFFFFFF02184BFFFFF8
:10005000FFFFFF021853FFFFFFFFFF02185BFFFFC8
:10006000FFFFFF021863FFFFFFFFFF020B67FFFFA9
:10007000FFFFFF021873FFFFFFFFFF02187BFFFF68
:10008000FFFFFF021883FFFFFFFFFF02188BFFFF38
:10009000FFFFFF12010002000000205104A21637EA
:1000A0000401020301090212000101008032090467
:1000B000000000FFFFFF000403090424035400654F
:1000C00000780061007300200049006E0073007426
:1000D00000720075006D0065006E007400730018FA
:1000E0000343004300200044006500620075006780
:1000F00000670065007200120330003000300030ED
:10010000003400330037000000AE000000000000A3
:1001100080FB120171B90003020162E479107804D6
:10012000B800028004F709D8FCE490F0027819794D
:10013000018002F0A3D8FCD9FA90F000AA82AB8328
:1001400090149E780179018015E493A3AC82AD836D
:100150008A828B83F0A3AA82AB838C828D83D8E9B9
:10016000D9E712030212010D75D0007581810201D9
:100170001279012243AE0322BB0102E722C082C0F2
:100180008389828A83BB0003E08002E493D083D01A
:100190008222BB000EC082C0838A838982F0D08312
:1001A000D08222BB0101F722600C08C6C313C61817
:1001B000C613C6D5E0F422700422600D18C6C333FE
:1001C000C608C633C6D5E0F41822E473D083D082C3
:1001D000CEC0E0EFC0E0C0207808E608C0E0DEFA5C
:1001E000E473C0D074072FD0D0F8D0E0F618DFFA4F
:1001F000D020D0E0FFD0E0FE22C8C0E0E9C0E0A9F6
:10020000811919E583C7F58319E582C7F582EAC02C
:10021000E0EBC0E0ECC0E0EDC0E0EEC0E0EFC0E03D
:10022000C0D0C0F0C0207908E709C0E0D8FAE47374
:1002300074072FF8D0E0F618DFFAD020D0F0D0D035
:10024000D0E0FFD0E0FED0E0FDD0E0FCD0E0FBD07D
:10025000E0FAD0E0F9D0E0F8D083D082D0E0327973
:1002600003D083D082E6C0E008D9FAE473D083D00B
:1002700082C5F0E493A3C5F0C395F0F5F0E493A331
:10028000C395F04005E5F0048001E475F002A42573
:1002900082F582E5F03583F583E493A3C0E0E4932F
:1002A000C0E022D083D082CCC0E0E493A3600612E9
:1002B00002CD1470FAE493A360061202EC1470FAF3
:1002C000D0E0FCE493A3C0E0E493C0E022C0E0E40B
:1002D00093A3D39C5010E493A3C39C400AD0E0D0D6
:1002E000E0D0E00202C0A3A3A3D0E022C0E0E493E8
:1002F000A36C7009D0E0D0E0D0E00202C0A3A3D08C
:10030000E02212041553F4BF53FEBF43F6407E00B3
:10031000A29640030E800B1204CAE964027003E542
:1003200055FE75550075540075510075520075578E
:100330001A755806755905755A06755B56755C1120
:10034000755DBF755E11EE600575530080239018D2
:1003500093E49364E17016901894E493648C700DA8
:10036000901895E493646470047A0180027A008A9C
:1003700053754793754800754909754A01754B09CE
:10038000754C01754D09754E01754F097550011277
:1003900005DF7A177B00120A81755614EE7004E5AA
:1003A00053702353F4FED29043FE011204757A3247
:1003B0007B0012049EEE60077AC27B0112049E63EA
:1003C000A008E5A080E8D2A475540112180022C04C
:1003D00008530880E5C6A2E7E50892E7F50874012E
:1003E00069701753BEFBE5BEA2E550FA7449450893
:1003F000FA8AC6E5C66A70FB8015E9701553BEFB24
:10040000E5BEA2E650FA8508C6E5C6650870FA435F
:10041000BE04D0082212047B53F5EFC2A443FF10A0
:1004200053F5F7C2A343FF0812046C53F4F7D293B9
:1004300043FE0853F3FBD28243FD0453F3FDD28104
:1004400043FD0253F4BFC29643FE4053F4FBC292F5
:1004500043FE0453F47F53FE7F43F68053F4FD5371
:10046000FEFD43F60253F1FD43F1012253F3FED2A8
:100470008043FD0122D2AF22C2AF2279001203CF06
:1004800053C6F8E5C622800C00000000EA24FF1ADB
:10049000EB34FFFBC3EA9402EB940050EB22EEC076
:1004A000E0EFC0E0EAFEEBFF80077AE87B0312048E
:1004B00086EEF8EFF974FF281E74FF39FFE870012B
:1004C000E970E7D0E0FFD0E0FE22741855BE1313A8
:1004D00013541F12026D0101DE04E104E4047900EB
:1004E00022790122790222EEC0E0EAFE7A007B0046
:1004F0008015851082851183E0FC18E62CFC08E647
:100500003400FD8C108D11E54965107004E54A65D5
:1005100011602F7810E62401F58208E63400F58397
:10052000E0697017AA10AB118A828B83E0FCEA2C79
:10053000FCEB3400FD8C108D118007E06E70B3EE83
:1005400060B0D0E0FE228547108548117A0079011D
:100550001204E72274021201CCE9FEEAFF8547107B
:10056000854811800D8A828B83A3A3A3A3A3E06E89
:1005700060147A0079021204E7EA7001EB6007EE7A
:1005800070E3EF1F70EC7F020201E274021201CCF3
:10059000EAFEEBFF7A001205547A0279041204E7AE
:1005A000EA7001EB60158A828B83A3A3E06E70E989
:1005B0008A828B83A3A3A3E06F70DE80C9EEC0E0C4
:1005C000C008C009E9FE8547108548117A00790303
:1005D0001204E7EE1E70F5D009D008D0E0FE227AB2
:1005E0000079011205548A828B83A3A3A3A3A3A33A
:1005F000A3E0A2E6500575410180037541007540F6
:100600000043BE8022752E02752F007535007903D8
:1006100012084F7512007513002274041201CC9059
:10062000DE0EE0FFE4F090DE11E0FEA2E4501A746A
:1006300080F0753507E5127002E5136009851282B6
:100640008513831201CA753500EEA2E2500AE490C8
:10065000DE11F0F5350206DAE535FA74026A7065E6
:1006600090DE16E0F50A782912025FA90A7A207B4B
:10067000DE12086C158115811581850A081208366D
:10068000A929AA2AAB2BE9250A120843E52C7002F6
:10069000E52D60047A4080027A48EA90DE11F0E5A8
:1006A0002C7002E52D7014E5127002E513600985C7
:1006B00012828513831201CA753500EF90DE0EF0A9
:1006C0007F040201E274066A700985128285138331
:1006D0001201CAE53560030207C9EEA2E050DC75DD
:1006E0000821750900750A01780812025F79087AF5
:1006F000207BDE12086C158115811581751200753D
:10070000130074E055211202A30006001F0720A465
:1007100007408E07805D07A0AF07C099075807E51F
:10072000221202A30006014407033F07053A070708
:1007300053070949070B4E075807120D21807912FC
:100740000D158074120D09806F121027806A121027
:10075000F18065120A7880607535048061E52212A7
:1007600002A30005007507067A07087F070A8407B9
:100770000C89075807120B8B803E120D5C803912D2
:100780000FF680341210C4802F120A7C802A751252
:10079000CB7513081208CB801F751215751309123B
:1007A00009158014751257751309120957800975B8
:1007B00012907513091209907404653570047A60FB
:1007C00080027A40EA90DE11F0E535FA74016A7031
:1007D000517E02A82CA92DC3E89420E9940050076B
:1007E000E8F50A7E0A8003750A20782912025FA9BB
:1007F0000A7A207BDE12088F158115811581850A02
:1008000008A929AA2AAB2BE92508120843120836A1
:10081000EE90DE11F0E50AC3942040030206BB020D
:1008200006A774056A60030206BB851282851383DE
:100830001201CA0206BB782CC3E69508F608E694B6
:1008400000F622F9EA3400FA89298A2A8B2B227AC7
:1008500000743612086240F97A00743B1208624054
:10086000F9222AF8E9F60AEAC3940522EEC0E0EF7D
:10087000C0E08A828B83E9FFE5811208B86009E055
:100880001201921208AD70F7D0E0FFD0E0FE22EE28
:10089000C0E0EFC0E08A828B83E9FFE5811208B8EF
:1008A0006009120178F01208AD70F780DBE92401CD
:1008B00009EA3400FA1FEF2224FAF8E6FC08E6FD04
:1008C00008E6FEECF9EDFAEEFBEF22E52212026DEE
:1008D000C103E808DC08E808E008E40812135D2218
:1008E0001214392212145222E5536025E554602176
:1008F000901896E493C0E0740193F583D082A3A38B
:10090000A3A3A3A31209827002E58360041201CAA3
:100910002275350422E52212026DC0022C09240939
:100920002C092809121201221213F122E553602327
:10093000E554601F901896E493C0E0740193F5832A
:10094000D082A3A3A3A31209827002E583600412DC
:1009500001CA2275350422E5536018E554601490ED
:100960001896E493240A1209777002E58360041252
:1009700001CA2275350422F8A3E4933400F9888271
:100980008983E493F8740193F988828983E582224C
:10099000E5536027E5546023901896E493C0E07413
:1009A0000193F583D082A3A3A3A3A3A3A3A31209B6
:1009B000827002E58360041201CA2275350422E5C3
:1009C000536018E5546014901896E493240C1209AF
:1009D000777002E58360041201CA2275350422E5AE
:1009E000536018E5546014901896E493240E12098D
:1009F000777002E58360041201CA2275350422E58E
:100A000053602CE5546028901896E4932410FCA3BE
:100A1000E4933400FD8C828D83E493FC740193FD98
:100A20008C828D83E5827002E58360031201CA2205
:100A3000E5536017E5546013901896E4932412125E
:100A400009777002E58360031201CAA842E85404E2
:100A5000600FE556A2E25009784274FB56F6120682
:100A600005A842E85410600FE556A2E45009784208
:100A700074EF56F612061A227535042275350422D3
:100A800022C008C009439A02438C10754200754386
:100A9000007544008A458B46EA90DE0BF08A088B8D
:100AA00009740478081201A8E50890DE07F08A08A6
:100AB0008B09740978081201A8E508543E90DE09F4
:100AC000F0D009D00822C0E074021201F9E5BEA2FC
:100AD000E650FA90DE06E0FAA2E25035A845E8902A
:100AE000DE0BF0F508854609740478081201A8E5C4
:100AF0000890DE07F08545088546097409780812D4
:100B000001A8E508543E90DE09F090DE01E0D2E055
:100B1000F07842EA46F690DE02E0F50875090074C6
:100B20000478081201B77842E50846F608E5094658
:100B3000F690DE04E0F508750900740978081201E2
:100B4000B7784208E50946F6EAA2E0500375440189
:100B500074065A6003754400120A30E58BF4F58B75
:100B6000C2E87F02020230C0E074011201F9E5BE62
:100B7000A2E650FAE589FEA2E75005C2BD1211EFC8
:100B8000EEF4F589C2C57F01020230E5237002E56B
:100B9000247011A825A926E9700A7402652770023D
:100BA000E528600475350422E52112026D8002A457
:100BB0000BB70BD80BE60BE870EAE541600478014F
:100BC0008002780090F000E8F0A3E4F0E540604F88
:100BD00090F000E0440280437404652E70C690F0EB
:100BE00000E4F0A38038E8547FFA7404652E70B4F2
:100BF000EAC3940650AE742E2AFAE85480600D744D
:100C0000072AF8E66403700D7801800B740C2AF84B
:100C1000E6640360F3780090F000E8F0A3E4F07479
:100C200004653560207C007DF0AA25741F5521F9EC
:100C3000120A80752900752AF0752B00752C027533
:100C40002D0075350122E5277002E528700E740429
:100C5000652E600EE5257002E526600675350402F6
:100C60000D06741F552112026D00025C0C730C7A84
:100C70000C8F0CAA23EA640160037900228940E901
:100C800060047905800279067A001209FF8077AA4C
:100C900025EA547FFAAC23EC70E0EAC3940650BC1A
:100CA000EA90DE0EF0742E2AFBAC25EC548060280E
:100CB000E960047C1080027C40EC90DE11F0E96079
:100CC000047C0380027C0074072BF8ECF6E96004D6
:100CD0007908802A79078026E960047C2080027CDC
:100CE00080EC90DE14F0E960047C0380027C0074E8
:100CF0000C2BF8ECF6E96004790A800279091209F4
:100D0000FFE490DE0EF07901227900120C46E970C2
:100D1000031209BF227901120C46E970031209DFA0
:100D200022E5257002E5267014E5277002E528709B
:100D30000CA823A924E97005E854806004753504E3
:100D400022E890DE00F0600A7402652E700D752EA8
:100D500003227403652E7003752E0222740412019F
:100D6000CCAA23AB24EB12026D0102CD0D730D8DC5
:100D70000DC60D1205468A298B2A8E2BA929AA2A6F
:100D80007B00120178F8882C8B2D020E6E790012F0
:100D900005548A298B2A8E2BA929AA2A7B00E924AB
:100DA000020909EA3400FA120178FC1919AA2AE9A1
:100DB0002403090909EA3400FA120178F9ECF888E9
:100DC0002C892D020E6EEAF91205BD80A98E298E9E
:100DD0002A8E2B7C0080727509007403780812013A
:100DE000B7784BE62508FA08E63509FBAE23AF24B1
:100DF0008A828B83E0C0E0EFF8D0E068704AA3E01D
:100E00006E7045AE25AF268A828B83A3A3E0C0E037
:100E1000EFF8D0E06870318A828B83A3A3A3E06EE1
:100E200070268A828B83A3A3A3A3E0F508A3E085A1
:100E30000829F52A752B008A828B83A3A3A3A3A379
:100E4000A3E0F52CA3E0F52D0C8C08794D784BE749
:100E5000C396F50A0809E796F50B7403780A1201A0
:100E6000A8C3E508950AE4950B5003020DD7AC29F9
:100E7000AD2AAE2BEC4D4E7005753504801A740406
:100E800065356014A827A928C3E8952CE9952D504D
:100E900004882C892D7535017F040201E274081243
:100EA00001CC05810581E58114F8EAF608EBF61816
:100EB00086828B83A3A3A3A3E06026AE4FAF5080AE
:100EC00008EE2404FEEF3400FF8E828F83E493FA51
:100ED000740193FBE58114F8E66A700308E66B7011
:100EE000E0750800803C749090DE14F07410120FCE
:100EF000EB70037509408E828F83A3A3A3E49355FF
:100F00000A6006E509D2E0F509E50990DE15F0EA88
:100F100090DE13F0740C250FF87600E490DE0EF0EE
:100F20000508E58114F88682088683A3A3A3A3E0BD
:100F3000FAE508C39A4003020FE27A007905120429
:100F4000E78A0A8B0BAC0AAD0BEC7001ED60D1ECBB
:100F50002402F8ED3400F9880C890D8882F583E0CD
:100F6000540FF50E90DE0EF07509008C828D83A370
:100F7000A3A3A3E02407F50AA3E03400F50B740350
:100F8000780A1201A8AA0A742E250EF50F750A0117
:100F9000750B00E50E780A1201B7EC2403F8ED3466
:100FA00000F9850C82850D83E0A2E74003020EE67E
:100FB000744890DE11F07408120FEB70037509404D
:100FC0008E828F83A3A3E493550A6006E509D2E0DD
:100FD000F509E50990DE12F0EA90DE10F0740702E0
:100FE0000F16158115817F080201E2F0888289833E
:100FF000E05403640122E5237002E5247012E52524
:101000007002E526700A740165277002E528600405
:101010007535042275292F752A00752B01752C0151
:10102000752D007535012274041201CC7402652EF1
:101030006015E5257002E526700DE5277002E528AC
:101040007005A924E9600575350480757A00790179
:101050001209FFA823E860587A00F91205548A089B
:101060008B09AE08AF09EE7001EF603F752E04A842
:1010700023E8F52F7509008E828F83A3A3A3A3E035
:10108000FAE509C39A503374302509F508F876005B
:101090007A0079041204E78A828B83A3A3A3E0A8D1
:1010A000086670EC120E9D050980CC753504800A27
:1010B000F52F752E03790312084F7A007902120971
:1010C000FF020E987404652E7018748165217012E9
:1010D000E5237002E524700A740165277002E52893
:1010E000600475350422A825E82430F98929021006
:1010F0001774021201CC7404652E700E7401652100
:101100007008E5277002E52860057535048042A85F
:1011100023E8FBA825E8FAA92F12058B8A088B097A
:10112000A808A909E8FEE9FFE87001E960DCAA2542
:1011300079031209FFA823E8C0E0A825E82430F8C5
:10114000D0E0F6EEFAEFFB120E9DAA257904120903
:10115000FF7F020201E2745390F002F074BE90F03F
:1011600003F074FC90F004F0744390F005F074BE4A
:1011700090F006F0740190F007F0747590F008F0AC
:10118000748790F009F0740190F00AF074E590F023
:101190000BF0744490F00CF0747090F00DF074F358
:1011A00090F00EF0742290F00FF0D2BD90F0107419
:1011B00002F0A374F0F0758202F5831201CA22E5F1
:1011C000407003790022C2AF1211EF75440090DE27
:1011D00001E0D2E2F07A0A7B0012049E90DE01E088
:1011E000C2E2F0C2BDC2C575897FD2AF790122E4E7
:1011F00090F007F090F008F090F009F090F00AF00D
:1012000022E5257002E526600302132C79217A007D
:101210007B0189298A2A8B2B752C088A2D8B35AC6A
:1012200051EC120192A952E9C0E0A929AA2AAB2BDC
:10123000E9240109EA3400FAD0E0120192E5536092
:1012400013901896E493C0E0740193F583D082E480
:1012500093FA80027A00EAC0E0A929AA2AAB2BE916
:1012600024020909EA3400FAD0E0120192E5536041
:1012700014901896E493C0E0740193F583D08274BF
:101280000193FA80027A00EAC0E0A929AA2AAB2BCE
:10129000E92403090909EA3400FAD0E0120192E5D1
:1012A000536015901896E493C0E0740193F583D0D1
:1012B00082A3A3E493FA80027A00EAC0E0A929AAF3
:1012C0002AAB2BE92404F9EA3400FAD0E0120192A7
:1012D000E5536016901896E493C0E0740193F5838B
:1012E000D082A3A3740193FA80027A00EAC0E0A935
:1012F00029AA2AAB2BE92405F9EA3400FAD0E01236
:101300000192E554C0E0A929AA2AAB2BE92406F9E9
:10131000EA3400FAD0E0120192A929AA2AAB2BE9FB
:101320002407F9EA3400FAE412019222E553602C12
:10133000E5546028901896E493C0E0740193F58317
:10134000D082A3A3A3A3E493F8740193F9888289BC
:1013500083E5827002E58360031201CA22E535FA53
:101360007026E554700AE52770047404652860054A
:101370007535048003753502752C00752D047529AB
:1013800000752AFB752B002274026A706374FB904F
:10139000F012F0E490F013F074DF90F014F074AFFA
:1013A00090F015F0740490F016F0E490F017F074DB
:1013B0001290F018F0744290F019F074F0F5D575B1
:1013C000D412120478E5AEA2E740FA43D601A8256C
:1013D000E8C333F5AD75AC00740755C6F87420B892
:1013E00000028004C313D8FCF5AB1201741204751B
:1013F00022C008C009E535703B852508852609C34C
:10140000E5089420E509940040057535048025E53C
:101410002770047404652860047A0480027A018AC3
:1014200035740A78081201B7F52985092AF52BF5D4
:101430002C752D04D009D00822752C00752D00E5DF
:10144000277002E52860047535042275350175544E
:101450000122E5357030120478744090DE11F07A84
:101460000A7B0012049EC290C2A4AA23AB24EA7095
:1014700001EB600312049EA825E8F55579031214C8
:101480008E12148780FE2253C9FB43C908227403BD
:1014900059C0E074FC55C9FAD0E04AF5C922FFFFF3
:1014A000FFFFFFFFFFFFFFFFFFFFFFFFFFFFFFFF4C
:1014B000FFFFFFFFFFFFFFFFFFFFFFFFFFFFFFFF3C
:1014C000FFFFFFFFFFFFFFFFFFFFFFFFFFFFFFFF2C
:1014D000FFFFFFFFFFFFFFFFFFFFFFFFFFFFFFFF1C
:10180000021898FFFFFFFFFFFFFFFFFFFFFFFFFF33
:10181000FFFFFFFFFFFFFFFFFFFFFFFFFFFFFFFFD8
:10182000FFFFFFFFFFFFFFFFFFFFFFFFFFFFFFFFC8
:10183000FFFFFFFFFFFFFFFFFFFFFFFFFFFFFFFFB8
:10184000FFFFFF022608FFFFFFFFFF02395CFFFFDB
:10185000FFFFFFFFFFFFFFFFFFFFFF023986FFFFD4
:10186000FFFFFF0239ABFFFFFFFFFFFFFFFFFFFF9F
:10187000FFFFFFFFFFFFFFFFFFFFFF023B80FFFFB8
:10188000FFFFFFFFFFFFFFFFFFFFFFFFFFFFFFFF68
:10189000FFFFFFE18C64D63C75D000758181751423
:1018A000207515F10218AC00000080FB121915B963
:1018B000000302190FE4795F7810B800028004F782
:1018C00009D8FCE490F120781E79038002F0A3D8B7
:1018D000FCD9FA7816903CA67A02BA00028007E496
:1018E00093A3F608DAF990F33DAA82AB83903CA863
:1018F000782F79018015E493A3AC82AD838A828B23
:1019000083F0A3AA82AB838C828D83D8E9D9E712B6
:1019100026D61218A7790122740122C57C703BC516
:101920007C33D2919297C29133D2919297C29133E4
:10193000D2919297C29133D2919297C29133D29120
:101940009297C29133D2919297C29133D29192974A
:10195000C29133D2919297C29122C57C7A0831C646
:1019600031C633D29131C1929731C1C291DAEF229F
:10197000E57C7039D291C291A29733D291C291A2E3
:101980009733D291C291A29733D291C291A2973349
:10199000D291C291A29733D291C291A29733D291A0
:1019A000C291A29733D291C291A29733227A083181
:1019B000C631C6D29131C131C1A297C29133DAEF9B
:1019C00022000000000000000000000000000000F5
:1019D000000022FAE57AB40704EA31F32224730501
:1019E0007AF8EAF622E57A2473057AF8E62290DEA0
:1019F00028E02290DE28F022D90AD06FD0708C71B6
:101A00008D7241F52253FE7FE57D7002C296D2971A
:101A10007A1030970EE57E6008EAC0E03170D0E0C1
:101A2000FADAEF002243FE80D2962231187003C208
:101A30008122D281227B087A00123BF63118700491
:101A4000D2818002C2817B087A00123BF622897C17
:101A500022897D22897E22756F1A7570FFC291C21C
:101A60009743FE8253F6FD22121A57512B7B087AB8
:101A700000123BF6E960065401603280057825E6E5
:101A8000602B31C1D29131C1C29131C1D29131C1EA
:101A9000C29131C151355125C07C757C01745531DD
:101AA0001BE4311B510531705125D07C2231C151CD
:101AB0003522E9311B223170F922C2AF740490DE65
:101AC0000EF090DE14E030E03390DE16E493F9601F
:101AD0002B856F83857082AD72AC71E47343FE8099
:101AE000D296E57B600790DE11E04401F0D91075D5
:101AF0006F1A7570FF90DE14E4F080C6D2AF223109
:101B0000EEF57B537B0103F57A537A070303541EEA
:101B1000901B14736156617061906132616A618AD1
:101B200061446164618461A2615E617E619C61B8AF
:101B300061D231F831EE311B5105317031D3317042
:101B400031D341DD31F831EE311B31F831EE311B4B
:101B500031F831EE311B31F831EE311B41DD31F816
:101B600031EE311B31F831EE311B31F831EE311BE2
:101B700031F831EE311B5105317031D341DD31F88F
:101B800031EE311B31F831EE311B31F831EE311BC2
:101B900031F831EE311B5105317041DD31F831EE54
:101BA000311B31F831EE311B31F831EE311B31E5AB
:101BB000311B5105317041DD31F831EE311B31F807
:101BC00031EE311B31E5311B31E5311B51053170EF
:101BD00041DD31F831EEFD311B31F831EEFC311BC6
:101BE000ED5407FD4C70027D08EC60010D31F831B9
:101BF000EE311BDCF8DDF65105317041DDBB010231
:101C0000E722C082C08389828A83BB0003E080020E
:101C1000E493D083D08222BB000EC082C0838A832B
:101C20008982F0D083D08222BB0101F722CAC0E0B2
:101C3000E6F0A308DAFAD0E0FA22700422600D1868
:101C4000C6C333C608C633C6D5E0F418222514101F
:101C5000AF08F514400215158008F514400215155B
:101C6000D2AF22C0D0251410AF08F51450020515CC
:101C70008008F51450020515D2AFD0D0222514F5F6
:101C80008210AF08F514400215158008F5144002C3
:101C90001515D2AF851583222514F582E43515F587
:101CA0008322E4732514C582C0E0E51534FFC583A3
:101CB000C0E0E514C3958224F9F8E4C5A88583152E
:101CC000858214C5A8E8CEF0A3E520F0A37808E645
:101CD00008F0A3DEFAEFF0A3E58124FBF8E608F0B4
:101CE000A3E608F0A30808E608F0A3E608F0A315A9
:101CF000811581D0E0FED0E0F815811581E8C0E0C3
:101D0000EEC0E022851583851482E0A3FEE0A3F5F2
:101D1000207808E0A3F608DFFAE0A3FFE0A3C0E024
:101D2000E0A3C0E0E0A3C0E0E0A3C0E0E4C5A88574
:101D30008214858315C5A8D083D08222C0D02514F3
:101D4000C582C0E0E51534FFC583C0E0E514C39546
:101D50008224F310AF08858315858214800885835B
:101D600015858214D2AFC8F0A3E9F0A3EAF0A3EB83
:101D7000F0A37908E709F0A3D8FAECF0A3EDF0A3FB
:101D8000EEF0A3EFF0A3D0E0F0A3D0E0F0A3D0E01A
:101D9000F0A3E520F0A3E5F0F0A3228515838514D8
:101DA00082E0C0E0A3E0F9A3E0FAA3E0FBA3780897
:101DB000E0F608A3DFFAE0FCA3E0FDA3E0FEA3E069
:101DC000FFA3E0C0E0A3E0C0E0A3E0F5D0A3E0F50E
:101DD00020A3E0A3F5F0E4C5A8858315858214C58A
:101DE000A8D082D083D0E0F8D0E0327403800474AD
:101DF000028000C0E0F404121C7DD0E0121C2D22F1
:101E0000D083D082C5F0E493A3C5F0C395F0F5F07C
:101E1000E493A3C395F04005E5F0048001E475F078
:101E200002A42582F582E5F03583F583E493A3C00F
:101E3000E0E493C0E022D083D082CCC0E0E493A35E
:101E40006006121E601470FAE493A36006121E7FEF
:101E50001470FAD0E0FCE493A3C0E0E493C0E02265
:101E6000C0E0E493A3D39C5010E493A3C39C400A26
:101E7000D0E0D0E0D0E0021E53A3A3A3D0E022C064
:101E8000E0E493A36C7009D0E0D0E0D0E0021E53F0
:101E9000A3A3D0E022D083D082ECC0E0EDC0E0E488
:101EA00093A3FCE493A3FDED4C600D121EE1EC2422
:101EB000FFFCED34FFFD80EFE493A3FCE493A3FD6E
:101EC000ED4C600D121F20EC24FFFCED34FFFD8073
:101ED000EFD0E0FDD0E0FCE493A3C0E0E493C0E0E9
:101EE00022C0E0C3E49396087401939618400FE46F
:101EF0009366700808740193661870007019A3A3A4
:101F0000C3E49396087401939618A3A3400DD0E000
:101F1000D0E0D0E0021ED1A3A3A3A3A3A3D0E022CC
:101F2000C0E0C0F088F0E49366700808740193661E
:101F3000187000A8F0A3A3700BD0F0D0E0D0E0D0D0
:101F4000E0021ED1A3A3D0F0D0E022755FE8756057
:101F5000F47561807562FD7563E87564F47565E814
:101F60007566F4756700756800756900756A00220A
:101F7000C082C083E56165637004E56265647006D4
:101F8000855F63856064856382856483E9F0A385EA
:101F9000826385836478671224DB022ED574F11284
:101FA0001CA474FE121C4D851482851583ECF0A3CD
:101FB000EDF08A088B097867E62508FA08E6350906
:101FC000FBC3EA9496EB9408400302208585630ADC
:101FD00085640B85610E85620FE50EC3950AF8E5F1
:101FE0000F950BF9C3E50898E50999500885080C89
:101FF00085090D8004880C890DE508C3950CFEE564
:1020000009950DFF780C121DEF7402121C98E0FC6C
:10201000A3E0FDAA0AAB0B1225687402121C63EE42
:102020007001EF60328E0A8F0B780A121DEF740276
:10203000121C98E0250CFCA3E0350DFDAA5FAB60F7
:102040001225687402121C63785FE62EFA08E63FD8
:10205000FB8A638B64801EE50A2508F8E50B3509C9
:10206000F988638964E50E687003E50F6970068579
:102070005F638560647867E62508F608E63509F64B
:102080007569008011E569700D7903122CB3790030
:10209000121F707569017402121C637F08021D040F
:1020A00074F1121CA490DE0EE0F5087403F090DECB
:1020B00011E0A2E05003022148A867A968E8700176
:1020C000E9607BC3E89440E994004008750A4075D4
:1020D0006A018006E8F50A756A00AE65AF6685613B
:1020E0000E85620F850A0CE50EC39EF8E50F9FF979
:1020F000C3E50C98E499A2D265D0334008EEFAE526
:102100000EC39AF50AA90AEEFAEFFB1225AD740187
:10211000F0850A0C7867C3E6950CF608E69400F69D
:10212000EE250AF8EF3400F988658966E50E6870D7
:1021300003E50F697012855F65856066800AE56A50
:102140006006756A007401F0E50890DE0EF002206A
:102150009B74F5121CA47E007F007517FFD2817A54
:10216000147B00123BF6C2817AE87B03123BF6C275
:1021700082C2F975F901A2F950FCC2F975F946A2BB
:10218000F950FCD282C282C2F975F990A2F950FCD2
:10219000C2F975F902A2F950FCC2F975F900A2F969
:1021A00050FCE5F9F509C2F975F900A2F950FCE512
:1021B000F9F508D2827808121E9500000200052564
:1021C000C8212525C821CF21AE08AF09751706EE15
:1021D0007001EF6003022261D28112227BD2974309
:1021E000FE80123A18123A217A887B13123BF6C20B
:1021F000817AD07B07123BF6C282C2F975F910A230
:10220000F950FCC2F975F940A2F950FCC2F975F910
:1022100000A2F950FCE5F9FAD28274846A70067E55
:10222000207F25803C12227BC29743FE8053F4FB23
:10223000D29243FE0453F4FDC29143FE02121A35BA
:10224000121A577901121A4E790112226CEE70019E
:10225000EF7005790012226CEE7001EF60037517C4
:1022600000EEFAEFFB80007F04021D04121A5112E7
:1022700022878A088B09AE08AF092253F4BFD29691
:1022800043FE4053F47F2274F8121CA47E007F00AA
:102290007901121A547981121A687A327B00123B42
:1022A000F67968121AB2121A05121AB6E9F508126E
:1022B0001AB6121A257900121A54E508121E3600B1
:1022C0000901DE2211E42281E82285EE2289F4222E
:1022D0008D042391F822A5FC22B500230D237E1046
:1022E0007F1180297E1180F87E107F25801F7E302F
:1022F0007F2480197E3180F87E1180EE7E3080064A
:102300007E3180027E407F257901121A54EEFAEF69
:10231000FB02377C74F3121CA4E535FA701575299D
:1023200049752AF1752B0085272C85282D753502D6
:1023300002380874026A70F81224B8121E95000060
:10234000020000004C2300014C2330231224C985D5
:102350000C8285820AA827A9287001E47008E895F4
:102360000AFEE99400FF880889097582497583F19E
:102370008010C2F9E0F5F9A3A2F950FCEB1B70F252
:10238000D282E5087002E50960A6C2827420655118
:102390007004742565526014750DC8A285500D7ABD
:1023A000057B00123BF6150DE50D70EFC3E50895B2
:1023B0000AF508E5099400F509AB0C800AC2F9E0BA
:1023C000F5F9A3A2F950FCEB1B70F2C3E5089EF5EA
:1023D00008E5099FF509EEFB80A274F3121CA4E541
:1023E0003560030224B51224B8121E9500000200C5
:1023F0000000FA230001FA23A3241224C9A827A964
:10240000287001E47004E8FEE9FF880A890B75086A
:10241000497509F1801FC2F975F900A2F950FCE570
:10242000F9850882850983F0A3858208858309EBF5
:102430001B70E3D282E50A7002E50B6066C282740B
:102440002065517004742565526014750DC8A2850D
:10245000500D7A057B00123BF6150DE50D70EFE58A
:102460000C121E0001028F24842479246E24C2F9E8
:10247000A924E9F5F9A2F950FCC2F9A926E9F5F970
:10248000A2F950FCC2F9A825E8F5F9A2F950FC78A8
:10249000251224DBC3E50A9EF50AE50B9FF50BEE3A
:1024A000FB808C752949752AF1752B0085272C85B1
:1024B000282D753501023808AA23AB2474C05AF5BB
:1024C0000874FF5BF509780822EA5403F50CEA5416
:1024D0003C1313543FFE7F0022786BE62401F6087C
:1024E000E63400F622C082C08375D22874F1F5D399
:1024F00074DE90F12AF0742690F12BF0E490F12C28
:10250000F0744090F12FF0742090F12EF090F1349F
:10251000E0541FF0745090F137F0742090F136F0D1
:1025200074F390F138F0743D90F139F074DF90F16C
:102530003AF074F990F13BF0E490F13CF0740290C1
:10254000F13FF0741190F13EF074DF90F140F074BF
:10255000F990F141F0E490F144F0741A90F147F0F1
:10256000741090F146022ED474F8121CA474081250
:102570001C9812320BED90F130F0EC90F131F0EB51
:1025800090F132F0EA90F133F0E890F135F0E9544F
:102590001FC0E090F134E054E0FAD0E04AF075D684
:1025A0000475D704E5D6A2E240FA02377CC082C0A7
:1025B00083EB90F128F0EA90F129F0E990F12DF009
:1025C00075D60275D702E5D6A2E140FA022ED5C033
:1025D00082C083EB90F142F0EA90F143F0E990F190
:1025E00045F090F13DF0E490F148F0E5A9FA43A9F7
:1025F00001C2C075D1EFD2B875D61875D708E060A2
:10260000FDC2B88AA9022ED5C0E0C0D0C082C08366
:10261000C2C0E5D1A2E4500975D1EF740190F14830
:10262000F0D083D082D0D0D0E03274F6121CA475E2
:1026300008EA75093C750A807808121DEB7406C318
:10264000946BFC74F494F3FD796B7AF37B00123C89
:10265000357403121C6375476B7548F37549027531
:102660004AF4754B02754CF4754D02754EF4754F76
:10267000027550F475089F750900750A00780812F4
:102680001DEB7C027D007477C3946B74F394F3F9B3
:10269000740C246BE934F37977FA7B00123C3574BF
:1026A00003121C637508F97808121DEB7C107D007D
:1026B00074E6C3946B74F394F3FB7847E6247BF5DC
:1026C0000808E63BA908FA7B00123C357403121C8B
:1026D000637F03021D041239C8123A2BD2A475512C
:1026E000007552001221518A518B52E517700A125F
:1026F0003A587980121A68800EE5517001EB700724
:10270000123A58C2A4D2A312262A53F4FED29043FE
:10271000FE01D2AF80061235F7851716E516121E98
:10272000000006472733274E274727472738273DEE
:10273000274227121ABA8016122B3D8011122C71D3
:10274000800C12354080077AFA7B00123BF6E517C1
:10275000FEE5166E60C6E516121E000402722765BD
:10276000276A276F27122B118008122C588003121A
:102770003A2BEE121E360004008627048B270590A4
:10278000270616271927121A57808E122A2A80899F
:10279000122BD18084C082C083E522121E36000332
:1027A000C6B527C7AB27CBB027BA2712294C800D57
:1027B0001223DA80081229D38003753504022ED53E
:1027C000C082C083E522121E360009C5F227C8E880
:1027D00027C9F727CAED27CFFE27D00728D10C2815
:1027E000D21128D516281B28122833803112231421
:1027F000802C1229EA80277900121A688020A825E7
:10280000E8F9121A4E8017122A0E8012122A1C8022
:102810000D122A0080081235A78003753504022E98
:10282000D5753504227535042275350422753504B5
:1028300022222274F8121CA4A825E8121E360003D6
:10284000004B2801882804BC289728E535FA701524
:10285000752949752AF2752B00752C08752D0075A0
:10286000350202294974026A600302294990F24D37
:10287000E0A2E0400302294990F249E06005D2A4B9
:10288000022949C2A4022949E535FA701E7430654F
:10289000277002E52860067535040229497529511B
:1028A000752AF2752B00752C3080B174026A6003B2
:1028B000022949740790F281F0022949E535FA703E
:1028C0000C740865277002E52870CC808374026A56
:1028D000707790F24DE0FBF4FCE5805CC0E090F294
:1028E00049E05BFAD0E04AF58090F24EE0FDF4FE5C
:1028F000E5905EC0E090F24AE05DFAD0E04AF590E3
:1029000090F24FE0FFF455A0C0E090F24BE05FFA88
:10291000D0E04AF5A0EC55F3F5F3EB45FDF5FDEEFF
:1029200055F4F5F4ED45FEF5FE741F5FFBA2E0E4FF
:1029300092E0C0E074185B1313543FFAD0E04AF4FD
:1029400055F5F5F5EB45FFF5FF02377CC082C083F6
:10295000A825E8121E000301CD295E2972297529D8
:1029600000752A00752B00752C00752D007535013A
:10297000805E79217A007B0189298A2A8B2B752C2C
:10298000048A2DE580121C17E590C0E0A929AA2A27
:10299000AB2BE9240109EA3400FAD0E0121C17E558
:1029A000A0C0E0A929AA2AAB2BE924020909EA342C
:1029B00000FAD0E0121C17A929AA2AAB2BE924039C
:1029C000090909EA3400FAE4121C1780A0753504DD
:1029D000022ED5E5357012752916752A00752B0162
:1029E000752C01752D0075350122E5357011E5272F
:1029F0007002E528600475350422A825E8F5172241
:102A0000740565167004122BE422122A4C227405F8
:102A100065167004122C3A22122AE52274056516F6
:102A20007004122C5822122B1122C082C083D28132
:102A3000123A2B123A0F74E055FC4411F5FC75FA6A
:102A400000C2811224E5121F4B022EC9C082C0832E
:102A5000E535FA700CA825E890F283122C26022A9C
:102A6000E274026A707C90F283E06401700890F274
:102A700088E090F284F0C282D291A28540FCA285C7
:102A800050FCC291C2F975F900A2F950FCA2854030
:102A9000FCC2F9A827E82402F5F9A2F950FCA285A6
:102AA00050FCC2F9A825E8F5F9A2F950FCC2F9A832
:102AB00027E8F5F9A2F950FC7582887583F2800A3F
:102AC000C2F9E0F5F9A2F950FCA3AA27AB2874FFDC
:102AD0002AF874FF3BF988278928EA7001EB70E037
:102AE000D282022ED5C082C08390F284E0701FC2D1
:102AF00082D291A28540FCA28550FCC291C2F97598
:102B0000F901A2F950FCD282740290F282F0022EF6
:102B1000D5C082C08390F284E0701FC282D291A29D
:102B20008540FCA28550FCC291C2F975F902A2F958
:102B300050FCD282740390F282F0022ED574F71208
:102B40001CA4C2AF90F282E0640270541220A07AFA
:102B500000C282D291A28540FCA28550FCC291C2E3
:102B6000F975F903A2F950FCA28540FCC2F975F988
:102B700000A2F950FCE5F9FEC39408401ED2AFEE66
:102B8000F97A887BF21225CFC2AFD28279007C8895
:102B90007DF2EEFA7B00121F9D8005EE7025D28239
:102BA000D2AF0233DDC2F975F900A2F950FCE5F9A4
:102BB000C0E08A08E5082488F582E434F2F583D081
:102BC000E0F00AEE1E70DED28279007C887DF28011
:102BD000C3C082C0831224E5121F4B122CBC1236D4
:102BE00047022EC9C082C083E535FA7012A825E8D5
:102BF00090F283F0A827E890F287122C26802474A4
:102C0000026A701F90F288E0FA90F283E0121E00D0
:102C10000001232C1E2C182CEA90F2848004EA90E8
:102C2000F285F0022ED5F0752988752AF2752B00F1
:102C300085272C85282D75350222C082C08390F20D
:102C400084E0701112367590F285E0F9122D5074FF
:102C50000290F282F0022ED5C082C08390F284E00E
:102C6000700C122D7B123663740390F282F0022EE8
:102C7000D5C082C083C2AF90F282E06402702F9010
:102C8000F286E0602678677498C396FA740808960E
:102C9000FBC3EA9407EB9400400F7901121F70798F
:102CA00001122CB3E0F9121F70E4F01220A0D2AF91
:102CB000022ED5121F707900121F70221237531284
:102CC000384E7A2A792312383553FEFD7A0079007E
:102CD00012383579147A477B0012379E2274F81225
:102CE0001CA4C2AF7A8B7BF212369BD2AF793E1214
:102CF0003818E9FE60571237C3E9547FF96005EED2
:102D0000C399500C79471237817947123781803D3A
:102D1000740529FA74032AFEE490F288F0EA90F22E
:102D200089F0E490F28AF0E990F28FF0C282C2F961
:102D300075F930A2F950FC7A907BF21225CFD2823D
:102D400079007C887DF2EEFA7B00121F9D02377CB1
:102D50001238C17ADD7B2C1238E379007A3E7BF39E
:102D6000123B4D7A3E7BF3123AEF7942123781746F
:102D7000E055FC4412F5FC75FA00221238CF794573
:102D8000123781123A2B22C082C0838005E490DE84
:102D900014F090DE14E0A2E0504890F314C3E094E5
:102DA0000DA3E09404503B90DE16E0FA800B122F46
:102DB000BFF090F314122FBFF0EA1A60D090DE2813
:102DC000E0C0E090F310123535D0E0F090F310E061
:102DD000644B7004A3E0640490F31070D1E4F0A39A
:102DE00080CF022ED5C082C08390F31DE0700D907D
:102DF000F31AC3E09440A3E09400406590DE11E034
:102E0000A2E040E590F31A12320BC3E89441E99432
:102E10000040047A40800EE8FA800A122FBFF0903A
:102E2000F31A123242EA1A602190F3181230E9E0E4
:102E300090DE28F090F318E0644B7004A3E0640483
:102E400090F31870D6E4F0A380D4740190DE11F0F2
:102E500090F31AE07002A3E0708FE490F31DF0800D
:102E60008E8072C082C08374FE121C4D122EDA85D1
:102E70001482851583F0744B68700374046990F3B1
:102E8000127005E4F0A38003122FBF123236122E07
:102E9000DAC0E07401121C98D0E0F0744B68700343
:102EA00074046990F3127005E4F0A38003122FBF3D
:102EB0001232368514828515831237D6123BF6E41A
:102EC00090F31CF0740202382F740290F284F074B4
:102ED0000190F282F0D083D0822290F312E0F8A326
:102EE000E0F9E824E8F582E934F4F583E022C082D1
:102EF000C083C282A2854003022FBA123211603C05
:102F00001232207004A3E0640490F3127005E4F020
:102F1000A38003122FBF123236A28F50FC12321B35
:102F20007004A3E0640490F3127005E4F0A380033E
:102F3000122FBF123236A28F407D80FA12322070DB
:102F400004A3E0640490F3127005E4F0A38003127C
:102F50002FBF123236A28F50FCE5F9C0E01230E6E6
:102F6000D0E012324C7004A3E0640490F3167005B4
:102F7000E4F0A38003122FBF1232547004A3E06464
:102F80000490F3127005E4F0A38003122FBF1232F5
:102F900036A28F50FCE5F9C0E01230E6D0E01232E4
:102FA0004C7004A3E0640490F3167005E4F0A38071
:102FB00003122FBF123224123202D282022ED5E027
:102FC0002401F0A3E0340022C082C083C282A28523
:102FD00040030230E3123211603C1232207004A32D
:102FE000E0640490F3127005E4F0A38003122FBF95
:102FF000123236A28F50FC12321B7004A3E064041C
:1030000090F3127005E4F0A38003122FBF12323642
:10301000A28F407D80FA1232207004A3E0640490F5
:10302000F3127005E4F0A38003122FBF123236A210
:103030008F50FCE5F9C0E01230E6D0E012324C705F
:1030400004A3E0640490F3167005E4F0A380031277
:103050002FBF1232547004A3E0640490F312700581
:10306000E4F0A38003122FBF123236A28F50FCE58A
:10307000F9C0E01230E6D0E012324C7004A3E064F4
:103080000490F3167005E4F0A38003122FBF1232F0
:103090002490F320E024FEF8A3E034FFF9E8700167
:1030A000E9603DC28F90F312E024E8FAA3E034F423
:1030B000FB8A828B83E0F5F990F312E0644B700495
:1030C000A3E0640490F3127005E4F0A38003122FD0
:1030D000BF123236A28F50FC1233FA7001E970C36E
:1030E000123202022FBA90F316E02434F8A3E0342F
:1030F000F9F98882898322C082C083C282A2854076
:10310000030231FF123211603C1232207004A3E03E
:10311000640490F3127005E4F0A38003122FBF1231
:103120003236A28F50FC12321B7004A3E06404906C
:10313000F3127005E4F0A38003122FBF123236A2FF
:103140008F407D80FA1232207004A3E0640490F373
:10315000127005E4F0A38003122FBF123236A28F43
:1031600050FCE5F9C0E01230E6D0E012324C7004B9
:10317000A3E0640490F3167005E4F0A38003122F1B
:10318000BF1232547004A3E0640490F3127005E49B
:10319000F0A38003122FBF123236A28F50FCE5F944
:1031A000C0E01230E6D0E012324C7004A3E06404B8
:1031B00090F3167005E4F0A38003122FBF1232249F
:1031C00090F32212320BE87001E96030C28F75F97A
:1031D00000A28F50FCE5F9C0E01233E2D0E01232D9
:1031E0004C7004A3E0640490F3167005E4F0A3802F
:1031F00003122FBF1233F37001E970D012320202B2
:103200002FBA122DE5E490F31CF022E0F8A3E0F9C8
:103210002290F31EE0C28F90F31222C28F90F3121D
:103220001232602212322822F090F31AE02401F0C8
:10323000A3E03400F02212323A22F090F31412325A
:103240004222E024FFF0A3E034FFF022F090F316D6
:10325000E0644B22123228C28F90F31212326022A5
:10326000123530F5F990F312E0644B2274F7121C1A
:10327000A4C282A28540030233D9123211603C12EB
:1032800032207004A3E0640490F3127005E4F0A30C
:103290008003122FBF123236A28F50FC12321B70E5
:1032A00004A3E0640490F3127005E4F0A380031219
:1032B0002FBF123236A28F407D80FA123220700466
:1032C000A3E0640490F3127005E4F0A38003122FCE
:1032D000BF123236A28F50FCE5F9C0E01230E6D0C2
:1032E000E012324C7004A3E0640490F3167005E41D
:1032F000F0A38003122FBF1232547004A3E06404C1
:1033000090F3127005E4F0A38003122FBF1232363F
:10331000A28F50FCE5F9C0E01230E6D0E012324C4A
:103320007004A3E0640490F3167005E4F0A3800336
:10333000122FBF123224C28F75F900A28F50FCE504
:10334000F9FA1230E6EA12324C7004A3E0640490F9
:10335000F3167005E4F0A38003122FBF123224C2CB
:103360008F75F900A28F50FCE5F9F5081230E6E5FB
:103370000812324C7004A3E0640490F3167005E464
:10338000F0A38003122FBF123224EAF9E42508F8D3
:1033900090F3221237D6E89AE99B4004EAF8EBF959
:1033A000E87001E96030C28F75F900A28F50FCE52A
:1033B000F9C0E01233E2D0E012324C7004A3E064B2
:1033C0000490F3167005E4F0A38003122FBF1233AC
:1033D000F37001E970D0123202D28280007F0202C3
:1033E0001D0490F316E02434FAA3E034F9FB8A823A
:1033F0008B83221232281233FA22E824FF18E93490
:10340000FFF9E822C082C08390F31CE0600302351C
:103410001290F314C3E09403A3E094005003023528
:103420001212351A90F31F12351E7004A3E06404C3
:1034300090F3127005E4F0A38003122FBF1232360E
:1034400090F31FE0A2E75004780F80027812E8445E
:1034500020F5FCE0544090F31DF090F31FE0542061
:1034600090F31EF090F31FE0541FF0121E000003B3
:103470000535FB347A34C034C03412351A90F32049
:1034800012351E7004A3E0640490F3127005E4F09A
:10349000A38003122FBF12352290F32112351E7024
:1034A00004A3E0640490F3127005E4F0A380031217
:1034B0002FBF12323690F320E02402122FC2804B2D
:1034C00012351A90F32212351E7004A3E0640490A2
:1034D000F3127005E4F0A38003122FBF123522907F
:1034E000F32312351E7004A3E0640490F3127005F8
:1034F000E4F0A38003122FBF12323690F32074023F
:10350000F0A3E4800690F320E4F0A3F0740190F3BC
:103510001CF090F31CE0F9022ED512352922F0029E
:10352000326512323A1235292290F31212353022C6
:10353000123535E022E024E8F8A3E034F40230F15B
:1035400074F8121CA490DE0EE0FE7404F0122D87B5
:103550008003122EEE123404E9604490F3201232FC
:103560000B7583F3758214C3E098A3E09940309003
:10357000F31FE0121E360005005235018935028E18
:10358000350393351F98359D35122FC880C71230EB
:10359000F780C212326C80BD122E6380B880FEEEBE
:1035A00090DE0EF002377CE535704BE5277002E5C2
:1035B00028700F7825E654FDFA08E6FBEA7001EB67
:1035C000600475350422D282D2817A027B00123CDB
:1035D0000EC281A825E8701753F3EFC28443FD1093
:1035E000C2827A647B00123BF6D28243F310227AC5
:1035F000647B00123BF622C082C08375F80075FC24
:103600003175FA0090F310E4F0A3F090F312F0A3F8
:10361000F090F314F0A3F090F316F0A3F090F318E9
:10362000F0A3F090F31AF0A3F090F31CF090F31DC8
:10363000F090F31EF090F31FF090F320F0A3F090C1
:10364000F322F0A3022ED443F14043F40243F508E1
:10365000D2DE75E64175E50075E7007ACD7B36125E
:10366000394722C082C083C2B975E40090F326E0D6
:10367000F5B9022ED5C082C08375E200756B007566
:103680006C00756D00756E00E5B990F326F043B9D6
:1036900002C2C1D2B975E401022ED5C082C08390A6
:1036A000F325E08A828B83F090F324E08A828B8377
:1036B000A3F0A86DA96EE88A828B83A3A3F0A86DFE
:1036C000A96EE98A828B83A3A3A3022ED4C082C0F1
:1036D0008374F055E4FC74505C64507036E5DC9003
:1036E000F325F0E5DD90F324F0E5E2E5E3C0E0E06A
:1036F000FAD0E0C39A5008856B6D856C6E800F78A8
:103700006BE62401FA08E63400FB8A6D8B6E122406
:10371000D98037ECA2E65014E5DC90F325F0E5DD26
:1037200090F324F0856B6D856C6E801EA2E4501AB8
:103730001224D918E6FA08E65403FBEA7001EB708C
:1037400009A86BA96CE990F286F0ECF454F1F5E469
:10375000022ED5D28253F3FDC28143FD0253F47F82
:10376000D29743FE80D281C2977A3E7BF3123A7F92
:1037700022C2F989F9A2F950FCA9F9227F01021DA0
:1037800004C28212380F2274F8121CA4EAFEEBC2A3
:10379000824410F9123771EE12382102377C74F727
:1037A000121CA4EAFEEB89081237BAF509EEF912E9
:1037B000377112380DA9090233DDC2824420F91293
:1037C00037CB22C282793012382222123771E92295
:1037D000D282D0E0FE22E0FAA3E0FB221237717918
:1037E0000022123771EEF91237712274F8121CA4FC
:1037F000E9FEC28279581237FC021D041237CBFF52
:10380000EEF91238290238137F06021D04A90812A6
:10381000382922EFF97F0122C282748049123821AF
:1038200022F91237DC12382922123771D282221281
:103830001C63022ED5EEC0E0EAFE1238400237D0FB
:10384000C28274C049F912384A221237E22274F84F
:10385000121CA47A3E7BF3123B0FD281D282C29714
:103860007A4C7B04123BF653FDDFD2977AC87B007B
:10387000123BF6C2817E64C282A285400B7A0A7B2B
:1038800000123BF61EEE70F1D282EE602F7E437F77
:10389000F38011A3E0F97B0012379EEE2402EF348F
:1038A000000E0EFF8E828F83E0FA70E77A467B006F
:1038B000123787E964857004790080027901023744
:1038C0007C75F005E9A424D4FA792E1238352279D2
:1038D000881237EB7A3E7BF3123B2D7A3E7BF31254
:1038E0003B0F22C082C0838A828B8379017A3E7B20
:1038F000F3123B4DAC82AD837A3E7BF3123AB97A38
:103900003E7BF3123AEF79881237EB022ED57480A2
:1039100055C6FA740169701853BEFBE5BEA2E550A6
:10392000FA74494AFA8AC6E5C66A70FB43BE0422A5
:10393000E9701353BEFBE5BEA2E650FA8AC6E5C69F
:103940006A70FB43BE0422C082C083A2AFE492E04F
:10395000F8C2AF90F32712397B022ED5C0E074F283
:10396000121D3C90F327E07002A3E0600990F3275A
:103970001239A2121CA27F01021D9BEAF0A3EBF0F8
:10398000E8A2E092AF22C0E074F2121D3C90F3294D
:10399000E07002A3E0600990F3291239A2121CA280
:1039A00080D4E0F8A3E0F583888222C0E074F212AC
:1039B0001D3C90F32BE07002A3E0600990F32B1202
:1039C00039A2121CA2023976123BEB53F5EFC2A4C6
:1039D00043FF1053F5F7C2A343FF08123A4F53F4C5
:1039E000F7D29343FE08123A0F53F3FDD28143FD01
:1039F0000253F4BFC29643FE40123A1853F47F5369
:103A0000FE7F43F680123A2153F1FD43F101225328
:103A1000F3FBD28243FD042253F4FBC29243FE0423
:103A20002253F4FD53FEFD43F60222123A4FC280A8
:103A300043F32043F31043F308740755C6240FFAE9
:103A400043FB8075F80074204AF5FC75FA53225345
:103A5000F3FED28043FD0122D28053F3DF53FDDF1A
:103A6000438F2053F3EF53FDEF438F1053F3F7537E
:103A7000FDF7438F0853F3FB53FDFB438F04227480
:103A8000F7121CA47508017509008A828B83A3E0D4
:103A90007808121C3A8A828B83E06401600479FF03
:103AA0008014E508F4FA55F4F5F4EA5590F590EA37
:103AB00055FEF5FE79000233DD74F8121CA4A2AFA6
:103AC000E492E0FEC2AF8A828B83E064017016A3A9
:103AD000E0123BCFECF0A3EDF0123B2DEEA2E09212
:103AE000AF79008007EEA2E092AF79FF02377CC089
:103AF00082C0838A828B83E06401700E439A10A394
:103B0000A3E0458DF58D7900800279FF022ED5C0A6
:103B100082C0838A828B83E06401700CA3A3E0F4EB
:103B2000558DF58D7900800279FF022ED5C082C0B7
:103B3000838A828B83E06401700EA3A3E0F4558A2C
:103B4000F58AC2EB7900800279FF022ED5C082C0CF
:103B500083E9121E0000016B3B5D3B6F3B8A828B49
:103B600083E064017005438C02801079FF800E8A27
:103B7000828B83E0640170F3538CFD7900022ED5B3
:103B8000C0E074F1121D3CE58A603FA2EB503B7E21
:103B900000750801750900EE7808121C3AAA08E5BC
:103BA0008A5A601DE58D5A6018EE123BCF123BE039
:103BB000E5827002E5836009EAF4558AF58A121CF1
:103BC000A20EEEC3940840C9C2EB7F02021D9BC344
:103BD00033F8E433F9E8242DF582E934F3F5832250
:103BE000123BE422E0F8A3E00230F1790012390E32
:103BF00053C6F8E5C622800C00000000EA24FF1A34
:103C0000EB34FFFBC3EA9402EB940050EB2274F810
:103C1000121CA4EAFEEBFF80077AE87B03123BF656
:103C2000EEF8EFF974FF281E74FF39FFE87001E920
:103C300070E702377C74F3121CA489088A098B0A86
:103C40008C0C8D0D740D121C98123C93802AA908BF
:103C5000AA09AB0A121BFDC0E0ECF9EDFAEEFBD0AD
:103C6000E0121C17E5082401F508E5093400F50900
:103C7000EC24010CED3400FD123C837001E970CEA0
:103C8000023808A80CA90D74FF28F50C74FF39F54B
:103C90000DE822E0F9A31237D6AC08AD09AE0A89C7
:103CA000088A098B0A22FFFF80010102000030F719
:103CB00036F8468547144A3F4C5A4F035311561065
:103CC000570E58030C6044002009212D222C232A72
:103CD000243225310000CC0508009527C027212873
:103CE000252829282D283128322812010002000019
:103CF00000205104A216000101020301090227005D
:103D000001010080320904000003FFFFFF040705E2
:103D100084024000050705040240000507058302F0
:103D20004000050403090424035400650078006181
:103D3000007300200049006E00730074007200756B
:103D4000006D0065006E00740073001803430043AB
:103D50000020004400650062007500670067006590
:103D600000720012033000300030003000300030AC
:103D700000300030000C0343004500420041004C7D
:103D80000086F31010FFFFFFFFFFFFFFFFFFFFFFA5
:103D9000FFFFFFFFFFFFFFFFFFFFFFFFFFFFFFFF33
:103DA000FFFFFFFFFFFFFFFFFFFFFFFFFFFFFFFF23
:103DB000FFFFFFFFFFFFFFFFFFFFFFFFFFFFFFFF13
:103DC000FFFFFFFFFFFFFFFFFFFFFFFFFFFFFFFF03
:10400000007400720075006D0065006E007400732E
:10401000001803430043002000440065006200755F
:104020000067006700650072001203300030003046
:1040300000300030003000300030000C03430045F9
:1040400000420041004C00C0F31010FFFFFFFFFFD3
:10405000FFFFFFFFFFFFFFFFFFFFFFFFFFFFFFFF70
:10406000FFFFFFFFFFFFFFFFFFFFFFFFFFFFFFFF60
:10407000FFFFFFFFFFFFFFFFFFFFFFFFFFFFFFFF50
:10408000FFFFFFFFFFFFFFFFFFFFFFFFFFFFFFFF40
:00000001FF
