:020000040000FA
:0318000002189833
:031843000225F08B
:03184B000239B0AF
:03187B00022B1C21
:10189300E18C64EA3A75D000758181751420751561
:1018A300F10218AC00000080FB12193EB9000302DC
:1018B3001938E4795F7810B800028004F709D8FC7E
:1018C300E490F120785879038002F0A3D8FCD9FA88
:1018D3007816903ABA7A02BA00028007E493A3F624
:1018E30008DAF990F377AA82AB83903ABC782F7920
:1018F300018015E493A3AC82AD838A828B83F0A32A
:10190300AA82AB838C828D83D8E9D9E790F120AA90
:1019130082AB83903ABC780179018015E493A3AC40
:1019230082AD838A828B83F0A3AA82AB838C828D60
:1019330083D8E9D9E71226BE1218A77901227401C8
:1019430022C57C703BC57C33D2919297C29133D22E
:10195300919297C29133D2919297C29133D291923D
:1019630097C29133D2919297C29133D2919297C2F7
:101973009133D2919297C29133D2919297C291228D
:10198300C57C7A0831EF31EF33D29131EA92973146
:10199300EAC291DAEF22E57C7039D291C291A29723
:1019A30033D291C291A29733D291C291A29733D2EB
:1019B30091C291A29733D291C291A29733D291C28D
:1019C30091A29733D291C291A29733D291C291A29D
:1019D3009733227A0831EF31EFD29131EA31EAA21B
:1019E30097C29133DAEF22000000000000000000EC
:1019F300000000000000000022FAE57AB40704EAC0
:101A0300511C222473057AF8EAF622E57A24730539
:101A13007AF8E62290DE28E02290DE28F022D90A26
:101A2300D06FD0708C718D72611E2253FE7FE57D65
:101A33007002C296D2977A1030970EE57E6008EA5C
:101A4300C0E03199D0E0FADAEF002243FE80D2966B
:101A53002231417003C28122D281227B087A001293
:101A63002B9031417004D2818002C2817B087A00BD
:101A7300122B9022897C22897D22897E22756F1BFD
:101A8300757028C291C29743FE8253F6FD22121A43
:101A93008051547B087A00122B90E9600654016050
:101AA3003280057825E6602B31EAD29131EAC29182
:101AB30031EAD29131EAC29131EA515E514EC07C92
:101AC300757C0174553144E43144512E3199514EA2
:101AD300D07C2231EA515E22E93144223199F92244
:101AE300C2AF740490DE0EF090DE14E030E0339069
:101AF300DE16E493F9602B856F83857082AD72AC3B
:101B030071E47343FE80D296E57B600790DE11E0BB
:101B13004401F0D910756F1B75702890DE14E4F042
:101B230080C6D2AF225117F57B537B0103F57A535D
:101B33007A070303541E901B3D73617F619961B95A
:101B4300615B619361B3616D618D61AD61CB6187F0
:101B530061A761C561E161FB512151173144512EE8
:101B6300319931FC319931FC6106512151173144CE
:101B730051215117314451215117314451215117EA
:101B830031446106512151173144512151173144D8
:101B9300512151173144512151173144512E31995B
:101BA30031FC610651215117314451215117314400
:101BB300512151173144512151173144512E31993B
:101BC300610651215117314451215117314451219B
:101BD30051173144510E3144512E3199610651212F
:101BE30051173144512151173144510E3144510E93
:101BF3003144512E3199610651215117FD31445120
:101C0300215117FC3144ED5407FD4C70027D08EC63
:101C130060010D512151173144DCF8DDF6512E31AD
:101C2300996106BB0102E722C082C08389828A834D
:101C3300BB0003E08002E493D083D08222BB000E7A
:101C4300C082C0838A838982F0D083D08222BB0181
:101C530001F722CAC0E0E6F0A308DAFAD0E0FA22DC
:101C6300700422600D18C6C333C608C633C6D5E058
:101C7300F41822251410AF08F51440021515800836
:101C8300F51440021515D2AF22C0D0251410AF08A9
:101C9300F514500205158008F51450020515D2AF4E
:101CA300D0D0222514F58210AF08F5144002151583
:101CB3008008F51440021515D2AF8515832225142B
:101CC300F582E43515F58322E4732514C582C0E05B
:101CD300E51534FFC583C0E0E514C3958224F9F804
:101CE300E4C5A8858315858214C5A8E8CEF0A3E5CD
:101CF30020F0A37808E608F0A3DEFAEFF0A3E5816D
:101D030024FBF8E608F0A3E608F0A30808E608F0C9
:101D1300A3E608F0A315811581D0E0FED0E0F81505
:101D2300811581E8C0E0EEC0E02285158385148229
:101D3300E0A3FEE0A3F5207808E0A3F608DFFAE0CD
:101D4300A3FFE0A3C0E0E0A3C0E0E0A3C0E0E0A302
:101D5300C0E0E4C5A8858214858315C5A8D083D0C7
:101D63008222C0D02514C582C0E0E51534FFC583A7
:101D7300C0E0E514C3958224F310AF08858315856D
:101D830082148008858315858214D2AFC8F0A3E935
:101D9300F0A3EAF0A3EBF0A37908E709F0A3D8FADC
:101DA300ECF0A3EDF0A3EEF0A3EFF0A3D0E0F0A3EB
:101DB300D0E0F0A3D0E0F0A3E520F0A3E5F0F0A39A
:101DC30022851583851482E0C0E0A3E0F9A3E0FA3D
:101DD300A3E0FBA37808E0F608A3DFFAE0FCA3E0A6
:101DE300FDA3E0FEA3E0FFA3E0C0E0A3E0C0E0A307
:101DF300E0F5D0A3E0F520A3E0A3F5F0E4C5A885C2
:101E03008315858214C5A8D082D083D0E0F8D0E0B2
:101E1300327403800474028000C0E0F404121CA630
:101E2300D0E0121C5622D083D082C5F0E493A3C520
:101E3300F0C395F0F5F0E493A3C395F04005E5F006
:101E4300048001E475F002A42582F582E5F0358370
:101E5300F583E493A3C0E0E493C0E022D083D0826F
:101E6300CCC0E0E493A36006121E891470FAE493D5
:101E7300A36006121EA81470FAD0E0FCE493A3C07A
:101E8300E0E493C0E022C0E0E493A3D39C5010E4C9
:101E930093A3C39C400AD0E0D0E0D0E0021E7CA311
:101EA300A3A3D0E022C0E0E493A36C7009D0E0D0F8
:101EB300E0D0E0021E7CA3A3D0E022D083D082EC4A
:101EC300C0E0EDC0E0E493A3FCE493A3FDED4C601C
:101ED3000D121F0AEC24FFFCED34FFFD80EFE493A9
:101EE300A3FCE493A3FDED4C600D121F49EC24FF0A
:101EF300FCED34FFFD80EFD0E0FDD0E0FCE493A3E4
:101F0300C0E0E493C0E022C0E0C3E4939608740108
:101F1300939618400FE4936670080874019366184B
:101F230070007019A3A3C3E49396087401939618E1
:101F3300A3A3400DD0E0D0E0D0E0021EFAA3A3A3F8
:101F4300A3A3A3D0E022C0E0C0F088F0E4936670BE
:101F5300080874019366187000A8F0A3A3700BD04F
:101F6300F0D0E0D0E0D0E0021EFAA3A3D0F0D0E09E
:101F730022D28253F3FDC28143FD0253F47FD297F1
:101F830043FE80D281C2977A777BF31229EC2275C4
:101F93005F047560F67561007562FF7563047564AF
:101FA300F67565047566F6756700756800756900F2
:101FB300756A0022786774FCC396FA74080896FB66
:101FC30022C082C083E56165637004E56265647065
:101FD30006855F63856064856382856483E9F0A316
:101FE3008582638583647867E62401F608E6340016
:101FF300F6D083D0822274F1121CCD8A088B098C0F
:102003000A8D0B78671220CEC3EA94FAEB9408404A
:10201300030220B3AA63AB647861E6C39AFC08E6C3
:102023009BFDC3E5089CE5099D500885080C8509BF
:102033000D80048C0C8D0DE508C3950CFEE5099508
:102043000DFF780C121E18AC0AAD0B12254D74024D
:10205300121C8CEE7001EF602E8E0E8F0F780E1215
:102063001E18E50A250CFCE50B350DFDAA5FAB60D8
:1020730012254D7402121C8C785FE62EFA08E63F97
:10208300FB8A638B64801978631220CE8A638B6426
:10209300EA65617003EB65627006855F6385606462
:1020A3007867E62508F608E63509F67569008016AF
:1020B300E56970127903121FC47900121FC47900F5
:1020C300121FC47569017F08021D2DE62508FA0851
:1020D300E63509FB2274F5121CCD90DE0EE0FE748A
:1020E30003F090DE11E0A2E0500302217FA867A96C
:1020F30068E87001E9607BC3E89440E99400400814
:10210300750840756A018006E8F508756A00AA65D6
:10211300AB66A861A96285080AE8C39AFCE99BFD3E
:10212300C3E50A9CE49DA2D265D0335004AC088079
:1021330006EAFCE8C39CFC8C08A9081225967401E6
:10214300F085080A7867C3E6950AF608E69400F670
:10215300181818E62508FA08E63400FB8A658B662A
:10216300EA65617003EB65627012855F6585606681
:10217300800AE56A6006756A007401F0EE90DE0E6F
:10218300F07F04021D2D74F7121CCD7517FFD28149
:10219300122233D29743FE8053F4FBC29243FE04D0
:1021A30053F4FD53FEFD43F6027A887B13122B9002
:1021B300C2817AD07B07122B90C282C2F975F910C3
:1021C300A2F950FCC2F975F940A2F950FCC2F975A5
:1021D300F900A2F950FCE5F9D282121E298400EC21
:1021E30021E6217A207B258042122233C29743FEC7
:1021F3008053F4FBD29243FE0453F4FDC29143FE99
:1022030002121A5E121A807901121A777901121AD0
:102213007A12223FEA7001EB70087900121A7A12DF
:10222300223FEA7001EB60037517007F02021D2D48
:1022330053F4BFD29643FE4053F47F2274F8121C2A
:10224300CD7E007F007901121A7D7981121A917A6D
:10225300327B00122B907968121ADB121A2E121A93
:10226300DFE9F508121ADF121A4E7900121A7DE51A
:1022730008121E5F0008019322119922819D228575
:10228300A32289A92291AD22A5B122B5B122BA22F6
:102293007E107F1180217E1180F87E107F258017AC
:1022A3007E307F2480117E3180F87E1180EE7E3077
:1022B3007F257901121A7DEEFAEFFB7F01021D2DB6
:1022C300748055C6FA740169701853BEFBE5BEA24B
:1022D300E550FA74494AFA8AC6E5C66A70FB43BEFA
:1022E3000422E9701353BEFBE5BEA2E650FA8AC688
:1022F300E5C66A70FB43BE042274F3121CCDAC27FF
:10230300AD28E535FA7013752920752AF1752B0070
:102313008C2C8D2D7535020224A174026A70F8127B
:1023230024A6121EBE000002000000362300013660
:10233300231A231224B7850C8285820A7001E47064
:1023430008EC950AFEED9400FF8C088D0975822038
:102353007583F18010C2F9E0F5F9A3A2F950FCEB03
:102363001B70F2D282E5087002E50960AAC282748A
:102373002065517004742565526014750DC8A285DB
:10238300500D7A057B00122B90150DE50D70EFC3F0
:10239300E508950AF508E5099400F509AB0C800AF0
:1023A300C2F9E0F5F9A3A2F950FCEB1B70F2C3E507
:1023B300089EF508E5099FF509EEFB80A274F31268
:1023C3001CCDE53560030224A11224A6121EBE0013
:1023D3000002000000E0230001E0238F241224B751
:1023E300A827A9287001E47004E8FEE9FF880A8998
:1023F3000B7508207509F1801FC2F975F900A2F960
:1024030050FCE5F9850882850983F0A38582088558
:102413008309EB1B70E3D282E50A7002E50B606C63
:10242300C282742065517004742565526014750D61
:10243300C8A285500D7A057B00122B90150DE50D72
:1024430070EFE50C121E29010275246A245F2454DF
:1024530024C2F9A924E9F5F9A2F950FCC2F9A92685
:10246300E9F5F9A2F950FCC2F9A825E8F5F9A2F9B2
:1024730050FC7825E62401F608E63400F6C3E50AA5
:102483009EF50AE50B9FF50BEEFB808675292075FB
:102493002AF1752B0085272C85282D7535017F069C
:1024A300021D2DAA23AB2474C05AF50874FF5BF5F3
:1024B30009780822EA5403F50CEA543C1313543FF9
:1024C300FE7F0022C082C08375D22874F2F5D374D4
:1024D300DE90F22AF0742690F22BF0E490F22CF0C6
:1024E300744090F22FF0742090F22EF090F234E0CA
:1024F300541FF0745090F237F0742090F236F07459
:10250300F390F238F0747C90F239F074DF90F23A81
:10251300F074F990F23BF0E490F23CF0740290F224
:102523003FF0741190F23EF074DF90F240F074F9D2
:1025330090F241F0E490F244F0741A90F247F07490
:102543001090F246F0D083D0822274F8121CCD741E
:1025530008121CC1E0F8A3E0F9ED90F230F0EC9022
:10256300F231F0EB90F232F0EA90F233F0E890F2CD
:1025730035F0E9541FC0E090F234E054E0FAD0E0C3
:102583004AF075D60475D704E5D6A2E240FA7F0176
:10259300021D2DC082C083EB90F228F0EA90F2294D
:1025A300F0E990F22DF075D60275D702E5D6A2E1D7
:1025B30040FA8091C082C083EB90F242F0EA90F23D
:1025C30043F0E990F245F090F23DF0E490F248F0E8
:1025D300E5A9FA43A901C2C075D1EFD2B875D618DF
:1025E30075D708E060FDC2B88AA9022548C0E0C0DB
:1025F300D0C082C083C2C0E5D1A2E4500975D1EF37
:10260300740190F248F0D083D082D0D0D0E03274FD
:10261300F6121CCD7508FE75093A750A8078081202
:102623001E147440C394A5FC74F494F3FD79A57A45
:10263300F37B00123A457403121C8C7547A5754849
:10264300F375493C754AF4754B3C754CF4754D3C38
:10265300754EF4754F3C7550F475089F75090075F8
:102663000A007808121E147C027D0074B1C394A57D
:1026730074F394F3F9740C24A5E934F379B1FA7B78
:1026830000123A457403121C8C7508F97808121E5F
:10269300147C107D007420C394A574F494F3FB7828
:1026A30047E6247BF50808E63BA908FA7B00123AC3
:1026B300457403121C8C7F03021D2D12280212285D
:1026C30059D2A47551007552001221898A518B5237
:1026D300E517700A1228867980121A91800DEA7024
:1026E30001EB7007122886C2A4D2A312261253F458
:1026F300FED29043FE01122B8280061238DF85172B
:1027030016E516121E5F0104051F2703001A270191
:1027130030270624272927121AE38011122F098054
:102723000C12382680077AFA7B00122B90E5166587
:102733001760CEE516121E290401462743274327B7
:10274300122EEAE517121E5F0104055E27020059E7
:102753002706FE260127121A8080A3122E52809E7E
:10276300C082C083E522121E5F0003C68327C77998
:1027730027CB7E278827122D9C800D1223C080082B
:10278300122E258003753504D083D08222C082C0E7
:1027930083E522121E5F0009C5C227C8B827C9C72F
:1027A30027CABD27CFCE27D0D727D1DC27D2E12711
:1027B300D5E627EB27122C8380311222FC802C12C2
:1027C3002E3C80277900121A918020A825E8F9125F
:1027D3001A778017122EC68012122EEA800D122E3F
:1027E3006F800812388F8003753504809B7535041C
:1027F30022753504227535042275350422222212EE
:102803002B8553F5EFC2A443FF1053F5F7C2A3433F
:10281300FF0812287D53F4F7D29343FE0853F3FBCA
:10282300D28243FD0453F3FDD28143FD0253F4BF2F
:10283300C29643FE4053F4FBC29243FE0453F47F1B
:1028430053FE7F43F68053F4FD53FEFD43F60253DC
:10285300F1FD43F1012212287DC28043F32043F3AB
:102863001043F308740755C6240FFA75FB8075F8F7
:102873000074204AF5FC75FA532253F3FED28043C9
:10288300FD0122D28053F3DF53FDDF438F2053F347
:10289300EF53FDEF438F1053F3F753FDF7438F08C7
:1028A30053F3FB53FDFB438F0422C2F989F9A2F9C9
:1028B30050FCA9F92274F4121CCD8C0A740C121C5E
:1028C300C11229A3740E121CC1122992C282EA12E8
:1028D3002974F50CA90A12297FD282A90C7F05025B
:1028E3001D2DEF12299E7F01021D2DC28212299FE9
:1028F3002279471228EE2274F8121CCDEAFEEBC2AD
:10290300824410F91228ADEE1229B90228E974F7AE
:10291300121CCDEAFEEB8908122937F509EEF912EC
:1029230028ADA90812299FA909022952C282793028
:102933001229BA22C2824420F912297A22C2827948
:102943003C1228AD7900221228B87404121C8C7F23
:1029530002021D2D74F8121CCDE9FEC282795812B1
:102963002968021D2D12297AFFEEF91229C10229C5
:10297300AB1229782249F91228ADE9221228ADAA0F
:1029830009EFC454F04A1229DEA9081228AD22E047
:10299300F508A3E0F509221228ADEEF91229C122A8
:1029A300E0FEA3E0FF22D282EFF97F0122C282740C
:1029B30080491229B922F91229441229C122122865
:1029C300ADD28222EEC0E0EAFE1229D5D282D0E057
:1029D300FE22C28274C0491229DE22F91229E3229F
:1029E3001228ADEEF91228AD2274F7121CCD75082A
:1029F300017509008A828B83A3E07808121C638A1D
:102A0300828B83E06401600479FF8014E508F4FAA3
:102A130055F4F5F4EA5590F590EA55FEF5FE790084
:102A23007F02021D2D74F8121CCDA2AFE492E0FECA
:102A3300C2AF8A828B83E0121E2901005D2A432ADA
:102A43008A828B83A3E0122B71ECF0A3EDF0122AA0
:102A5300B7EEA2E092AF79008007EEA2E092AF79E1
:102A6300FF7F01021D2DC082C0838A828B83E01207
:102A73001E2901008D2A7B2A439A108A828B83A305
:102A8300A3E0458DF58D7900800279FF804CC082EB
:102A9300C0838A828B83E0121E290100B32AA32AF2
:102AA3008A828B83A3A3E0F4558DF58D7900800290
:102AB30079FF8026C082C0838A828B83E0121E291D
:102AC3000100DB2AC92A8A828B83A3A3E0F4558AF7
:102AD300F58AC2EB7900800279FFD083D08222C0CD
:102AE30082C0838A828B83E0FAE9121E29000107E0
:102AF3002BF82A0B2BEA121E290100072B022B436A
:102B03008C02801179FF800FEA121E290100072B26
:102B1300152B538CFD790080C1C0E074F1121D6543
:102B2300E58A6045A2EB50417E00750801750900F6
:102B3300EE7808121C63AA08E58A5A6023E58D5AC9
:102B4300601EEE122B71E0F8A3E0F988828983E519
:102B5300827002E5836009EAF4558AF58A121CCB78
:102B63000EEEC3940840C3C2EB7F02021DC4C333FD
:102B7300F8E433F9E82449F582E934F2F58322D203
:102B8300AF2279001222C353C6F8E5C622800C0097
:102B9300000000EA24FF1AEB34FFFBC3EA9402EBC4
:102BA300940050EB2274F8121CCD7A777BF3122A2F
:102BB30091D281D282C2977A4C7B04122B9053FD1F
:102BC300DFD2977AC87B00122B90C2817E64C282C7
:102BD300A285400B7A0A7B00122B901EEE70F1D275
:102BE30082EE602F7E7D7FF38011A3E0F97B0012DC
:102BF3002911EE2402EF34000E0EFF8E828F83E044
:102C0300FA70E77A467B001228FAE9648570047942
:102C130000800279017F01021D2D75F005E9A424CE
:102C2300D4FA792E1229C722D083D0822279421274
:102C330028EE2279451228EE2279881229577A77CD
:102C43007BF3122AB77A777BF3122A91227A777B66
:102C5300F3122A6922C082C0838A828B8379017A24
:102C6300777BF3122AE2AC82AD837A777BF3122A65
:102C7300287A777BF3122A697988122957022C2B39
:102C830074F8121CCDA827A928E535FCAA25EA1259
:102C93001E5F000300A22C01DF2C040F2DEA2CEC95
:102CA3007015752959752AF2752B00752C08752D29
:102CB30000753502022D9774026C6003022D979004
:102CC300F259E0FA90F25DE0A2E04003022D97EAA8
:102CD3006005D2A4022D97C2A4022D97EC701C7438
:102CE30030687001E96006753504022D9775296116
:102CF300752AF2752B00752C3080B374026C600357
:102D0300022D97740790F291F0022D97EC700A74DC
:102D130008687001E970D0808974026C707690F253
:102D23005DE0FBF4FCE5805CC0E090F259E05BFA07
:102D3300D0E04AF58090F25EE0FDF4FEE5905EC0DF
:102D4300E090F25AE05DFAD0E04AF59090F25FE04D
:102D5300FFF455A0C0E090F25BE05FFAD0E04AF5E3
:102D6300A0EC55F3F5F3EB45FDF5FDEE55F4F5F465
:102D7300ED45FEF5FE741F5FFBA2E0E492E0C0E0C8
:102D830074185BC31313FAD0E04AF455F5F5F5EB69
:102D930045FFF5FF7F01021D2DC082C083A825E8F2
:102DA300121E2903011D2EAE2DC22D752900752A71
:102DB30000752B00752C00752D00753501805E792B
:102DC300217A007B0189298A2A8B2B752C048A2D71
:102DD300E580121C40E590C0E0A929AA2AAB2BE9A3
:102DE300240109EA3400FAD0E0121C40E5A0C0E057
:102DF300A929AA2AAB2BE924020909EA3400FAD04B
:102E0300E0121C40A929AA2AAB2BE92403090909CA
:102E1300EA3400FAE4121C4080A0753504D083D054
:102E23008222E5357012752916752A00752B0175F6
:102E33002C01752D0075350122E5357011E52770DC
:102E430002E528600475350422A825E8F51722C099
:102E530082C0831239301224C7121F92122F557465
:102E63000290F294F0740190F2928051C082C08378
:102E7300E535FA7022A825E890F293F0A827E890A8
:102E8300F297F0752998752AF2752B0085272C8502
:102E9300282D753502802474026A701F90F298E021
:102EA300FA90F293E0121E290001BE2EB92EB32E22
:102EB300EA90F2948004EA90F295F08001F0D083D6
:102EC300D08222C082C08390F294E0121E290000B7
:102ED300E82ED72E12395990F295E0F912302A7460
:102EE3000290F292F080D7C082C08390F294E012F5
:102EF3001E290000072FFB2E12304612394574039A
:102F030090F292F080B874F7121CCDC2AF90F29297
:102F1300E06402702B90F296E06022121FB7C3EABE
:102F23009407EB940040147901121FC47901121F16
:102F3300C47900121FC4E0F9121FC4E4F01220D8B0
:102F4300D2AF7F02021D2DC082C083E990F29602A8
:102F53002EC0121F74122BA87A0979211229C75384
:102F6300FEDF7A2A79231229C753FEFD7A7E792060
:102F73001229C753FEF77A7E79221229C753FEEF2F
:102F83007A7E79241229C753FEFB7A7E792512298A
:102F9300C753FEBF7A0079001229C779147A477B99
:102FA3000012291153F4DF53FEDF53F6DF53F7BF4B
:102FB3002274F8121CCDC2AF7ADB7BF212397ED2B7
:102FC300AF7988122957793E1229B0E9FE6053126E
:102FD300292FE9547FF96005EEC39950081228F4AC
:102FE3001228F4803D740529FA74032AFEE490F252
:102FF300D8F0EA90F2D9F0E490F2DAF0E990F2DF57
:10300300F0C282C2F975F930A2F950FC7AE07BF282
:103013001225B7D28279007CD87DF2EEFA7B0012BA
:103023001FF97F01021D2D122C1D7AB47B2F122C48
:1030330058122C50122C3074E055FC4411F5FC75D9
:10304300FA0022122C3C122C3612285922C082C0BC
:10305300838005E490DE14F090DE14E0A2E0504893
:1030630090F364C3E0940DA3E09404503B90DE1608
:10307300E0FA800B123278F090F364123278F0EABF
:103083001A60D090DE28E0C0E090F3601237FFD0E2
:10309300E0F090F360E0644B7004A3E0640490F309
:1030A3006070D1E4F0A380CF023273C082C08390FA
:1030B300F36DE0700D90F36AC3E09440A3E09400D5
:1030C300406790DE11E0A2E040E590F36A1234C25B
:1030D300C3E89441E9940040047A408002E8FAEAA4
:1030E300FB800A123278F090F36A1234E9EB1B602A
:1030F3002190F368123390E090DE28F090F368E0BB
:10310300644B7004A3E0640490F36870D6E4F0A306
:1031130080D4740190DE11F090F36AE07002A3E0B2
:10312300708DE490F36DF0808C023273C082C083A3
:1031330074FE121C76123195851482851583F07402
:103143004B68700374046990F3627005E4F0A38024
:10315300031232781234DD123195C0E07401121C6F
:10316300C1D0E0F0744B68700374046990F362702B
:1031730005E4F0A380031232781234DD85148285CE
:103183001583E0FAA3E0FB122B90E490F36CF002BA
:10319300326E90F362E0F8A3E0F9E82404F582E9E3
:1031A30034F6F583E022C082C0831234C8603C1237
:1031B30034D97004A3E0640490F3627005E4F0A3CF
:1031C30080031232781234DDA28F50FC1234D47093
:1031D30004A3E0640490F3627005E4F0A380031297
:1031E30032781234DDA28F407D80FA1234D9700414
:1031F300A3E0640490F3627005E4F0A38003123249
:10320300781234DDA28F50FCE5F9C0E012338DD083
:10321300E01234F37004A3E0640490F3667005E4F1
:10322300F0A3800312327812350D7004A3E0640416
:1032330090F3627005E4F0A380031232781234DD58
:10324300A28F50FCE5F9C0E012338DD0E01234F3C5
:103253007004A3E0640490F3667005E4F0A38003B4
:103263001232781234FB1234AA80057402121C8CB9
:10327300D083D08222E02401F0A3E0340022C08274
:10328300C0831234C8603C1234D97004A3E06404D0
:1032930090F3627005E4F0A380031232781234DDF8
:1032A300A28F50FC1234D47004A3E0640490F36240
:1032B3007005E4F0A380031232781234DDA28F404C
:1032C3007D80FA1234D97004A3E0640490F3627031
:1032D30005E4F0A380031232781234DDA28F50FC90
:1032E300E5F9C0E012338DD0E01234F37004A3E0AB
:1032F300640490F3667005E4F0A38003123278123D
:10330300350D7004A3E0640490F3627005E4F0A348
:1033130080031232781234DDA28F50FCE5F9C0E04D
:1033230012338DD0E01234F37004A3E0640490F3FD
:10333300667005E4F0A380031232781234FB90F335
:1033430070E024FEF8A3E034FFF9E87001E9603788
:10335300C28F90F362E02404FAA3E034F6FB8A827E
:103363008B831235207004A3E0640490F36270052C
:10337300E4F0A380031232781234DDA28F50FC12E2
:1033830034B57001E970C902326990F366E02482B2
:10339300F8A3E034FAF98882898322C082C08312B9
:1033A30034C8603C1234D97004A3E0640490F3621F
:1033B3007005E4F0A380031232781234DDA28F503B
:1033C300FC1234D47004A3E0640490F3627005E447
:1033D300F0A380031232781234DDA28F407D80FA8D
:1033E3001234D97004A3E0640490F3627005E4F02E
:1033F300A380031232781234DDA28F50FCE5F9C0AA
:10340300E012338DD0E01234F37004A3E06404902F
:10341300F3667005E4F0A3800312327812350D7061
:1034230004A3E0640490F3627005E4F0A380031244
:1034330032781234DDA28F50FCE5F9C0E012338DEF
:10344300D0E01234F37004A3E0640490F3667005D3
:10345300E4F0A380031232781234FB1234BFE87015
:1034630001E96040C28F75F900A28F50FCE5F9C0F5
:10347300E090F366E02482FAA3E034FAFB8A828BBD
:1034830083D0E01234F37004A3E0640490F3667015
:1034930005E4F0A380031232781234FB1234B570C2
:1034A30001E970C00232691230AEE490F36CF0D2DD
:1034B3008222E824FF18E934FFF9E82290F372E04E
:1034C300F8A3E0F922C28290F36EE0C28F90F36218
:1034D30022C28F90F362123519221234E122F09046
:1034E300F3641234E922E024FFF0A3E034FFF02276
:1034F300F090F366E0644B221234FF22F090F36AFB
:10350300E02401F0A3E03400F0221234FFC28F90D4
:10351300F3621235192212380712352022E0F5F929
:1035230090F362E0644B22C082C08374FE121C7667
:103533001234C8603C1234D97004A3E0640490F3DD
:10354300627005E4F0A380031232781234DDA28F97
:1035530050FC1234D47004A3E0640490F362700549
:10356300E4F0A380031232781234DDA28F407D8011
:10357300FA1234D97004A3E0640490F3627005E492
:10358300F0A380031232781234DDA28F50FCE5F9E8
:10359300C0E012338DD0E01234F37004A3E064046E
:1035A30090F3667005E4F0A3800312327812350DB0
:1035B3007004A3E0640490F3627005E4F0A3800355
:1035C3001232781234DDA28F50FCE5F9C0E01233D9
:1035D3008DD0E01234F37004A3E0640490F36670BA
:1035E30005E4F0A380031232781234FBC28F75F91D
:1035F30000A28F50FCE5F9C0E07401121CC1D0E0B9
:10360300F0C0E012338DD0E01234F37004A3E06411
:103613000490F3667005E4F0A38003123278123449
:10362300FBC28F75F900A28F50FCE5F985148285E2
:103633001583F0C0E012338DD0E01234F37004A38D
:10364300E0640490F3667005E4F0A380031232781B
:103653001234FB1234BF851482851583C3E098A30B
:10366300E099500C851482851583E0FAA3E080036A
:10367300E8FAE9FB851482851583EAF0A3EBF0856C
:103683001482851583E07002A3E06042C28F75F94E
:1036930000A28F50FCE5F9C0E012338DD0E0123464
:1036A300F37004A3E0640490F3667005E4F0A38070
:1036B300031232781234FB851482851583E024FFCC
:1036C300F0F8A3E034FFF0F9E87001E970BE1234BA
:1036D300AA02326EC082C08390F36CE060030237AB
:1036E300F790F364C3E09403A3E09400500302371C
:1036F300F790F3621237FFE090F36F1238177004FC
:10370300A3E0640490F3627005E4F0A38003123233
:10371300781234DD90F36FE0A2E75004780F800253
:103723007813E84420F5FCE0544090F36DF090F3F7
:103733006FE0542090F36EF090F36FE0541FF0901D
:10374300F36212380D90F36FE0121E290003EA377B
:10375300E0375B37A337A33788828983E090F37020
:103763001238177004A3E0640490F3627005E4F068
:10377300A3800312327812381B90F371123817703A
:1037830004A3E0640490F3627005E4F0A3800312E1
:1037930032781234DD90F370E0240212327B804DD4
:1037A30088828983E090F3721238177004A3E0646F
:1037B3000490F3627005E4F0A380031232781238A8
:1037C3001B90F3731238177004A3E0640490F36240
:1037D3007005E4F0A380031232781234DD90F370A5
:1037E3007402F0A3E4800690F370E4F0A3F0740194
:1037F30090F36CF090F36CE0F90232731238032209
:103803001238072212380D023399E02404F8A3E09A
:1038130034F6F922F00235231234E190F3621238C0
:1038230003E02274F8121CCD90DE0EE0FE7404F067
:1038330012305080031231A91236D7E9604490F355
:10384300701234C27583F3758264C3E098A3E09960
:10385300403090F36FE0121E5F0005003838016FAF
:10386300380274380379381F7E38833812328180E6
:10387300C712339E80C212352A80BD12312F80B801
:1038830080FEEE90DE0EF07F01021D2DE535704BBC
:10389300E5277002E528700F7825E654FDFA08E65F
:1038A300FBEA7001EB600475350422D282D2817A7F
:1038B300017B00122B90C281A825E8701753F3EF08
:1038C300C28443FD10C2827A647B00122B90D282A1
:1038D30043F310227A647B00122B9022C082C083B0
:1038E30075F80075FC3375FA0090F360E4F0A3F00B
:1038F30090F362F0A3F090F364F0A3F090F366F01A
:10390300A3F090F368F0A3F090F36AF0A3F090F3C0
:103913006CF090F36DF090F36EF090F36FF090F322
:1039230070F0A3F090F372F0A3F002327343F1400E
:1039330043F40243F508D2DE75E64175E50075E709
:103943000022C082C083C2B975E40090F376E0F52B
:10395300B9D083D08222C082C08375E200756B0028
:10396300756C00756D00756E00E5B990F376F043E4
:10397300B902C2C1D2B975E40180D6C082C08390B6
:10398300F375E08A828B83F090F374E08A828B83F1
:10399300A3F0A86DA96EE88A828B83A3A3F0A86D18
:1039A300A96EE98A828B83A3A3A3F080A4C0E074E9
:1039B300F2121D6574F055E4FE74505E6450703667
:1039C300E5DC90F375F0E5DD90F374F0E5E2E5E313
:1039D300C0E0E0FAD0E0C39A5008856B6D856C6E49
:1039E300800F786BE62401FA08E63400FB8A6D8BBE
:1039F3006E123A398035EEA2E65014E5DC90F37589
:103A0300F0E5DD90F374F0856B6D856C6E801CA220
:103A1300E45018123A3918E6FA08E65403FBEA7040
:103A230001EB7007A86BA96C122F4AEEF454F1F561
:103A3300E47F01021DC4786BE62401F608E6340036
:103A4300F62274F3121CCD89088A098B0A8C0C8D1B
:103A53000D740D121CC1123AA5802AA908AA09AB3C
:103A63000A121C26C0E0ECF9EDFAEEFBD0E0121CC2
:103A730040E5082401F508E5093400F509EC2401C3
:103A83000CED3400FD123A957001E970CE7F060209
:103A93001D2DA80CA90D74FF28F50C74FF39F50D25
:103AA300E822E0F9A3E0FAA3E0FBAC08AD09AE0A13
:103AB30089088A098B0A22FFFF0105200000803054
:103AC300F736F8468547144A3F4C5A4F035311566D
:103AD30010570E58030C6044002009212D222C237B
:103AE3002A2432253100000005070063279027F0C0
:103AF30027F427F827FC27002801281201000200D9
:103B03000000205104A0160001010203010902274D
:103B13000001010080320904000003FFFFFF0407D6
:103B230005840240000507050402400005070583DC
:103B330002400005040309042403540065007800CF
:103B430061007300200049006E007300740072006E
:103B530075006D0065006E00740073001803530058
:103B63006D006100720074005200460030003500A1
:103B730045004200120330003000300030003000B6
:103B83003000300030000C03430045004200410088
:063B93004C00C0F310100D
:040000050000189847
:00000001FF
