:020000040000FA
:0600000002017602180364
:03000B0002180BCD
:03001300021813BD
:03001B0002181BAD
:030023000218239D
:03002B0002182B8D
:03003300020ACDF1
:03003B0002183B6D
:030043000218435D
:03004B0002184B4D
:030053000218533D
:03005B0002185B2D
:030063000218631D
:03006B00020B6E17
:03007300021873FD
:03007B0002187BED
:03008300021883DD
:03008B0002188BCD
:1000930012010002000000205104A01670010102A9
:1000A300030109021200010100803209040000006B
:1000B300FFFFFF00040309042403540065007800D4
:1000C30061007300200049006E0073007400720029
:1000D30075006D0065006E00740073001803530013
:1000E3006D0061007200740052004600300035005C
:1000F3004500420012033000300030003000300071
:10010300310037003000AE00000000000080FB1219
:10011300017FB90003020170E479107802B800028C
:100123008004F709D8FCE479127802B8000280044D
:10013300F709D8FCE490F002781979018002F0A362
:10014300D8FCD9FA90F000AA82AB8390147478019A
:1001530079018015E493A3AC82AD838A828B83F00B
:10016300A3AA82AB838C828D83D8E9D9E7120310CB
:1001730012010D75D00075818102011279012243AC
:10018300AE0322BB0102E722C082C08389828A8335
:10019300BB0003E08002E493D083D08222BB000E35
:1001A300C082C0838A838982F0D083D08222BB013C
:1001B30001F722600C08C6C313C618C613C6D5E0E0
:1001C300F422700422600D18C6C333C608C633C6B2
:1001D300D5E0F41822E473D083D082CEC0E0EFC020
:1001E300E0C0207808E608C0E0DEFAE473C0D0740B
:1001F300072FD0D0F8D0E0F618DFFAD020D0E0FFF8
:10020300D0E0FE22C8C0E0E9C0E0A9811919E58366
:10021300C7F58319E582C7F582EAC0E0EBC0E0ECDD
:10022300C0E0EDC0E0EEC0E0EFC0E0C0D0C0F0C081
:10023300207908E709C0E0D8FAE47374072FF8D0EF
:10024300E0F618DFFAD020D0F0D0D0D0E0FFD0E035
:10025300FED0E0FDD0E0FCD0E0FBD0E0FAD0E0F946
:10026300D0E0F8D083D082D0E0327903D083D0823B
:10027300E6C0E008D9FAE473D083D082C5F0E493F2
:10028300A3C5F0C395F0F5F0E493A3C395F040053F
:10029300E5F0048001E475F002A42582F582E5F01F
:1002A3003583F583E493A3C0E0E493C0E022D083D5
:1002B300D082CCC0E0E493A360061202DB1470FA90
:1002C300E493A360061202FA1470FAD0E0FCE493FC
:1002D300A3C0E0E493C0E022C0E0E493A3D39C5026
:1002E30010E493A3C39C400AD0E0D0E0D0E0020224
:1002F300CEA3A3A3D0E022C0E0E493A36C7009D003
:10030300E0D0E0D0E00202CEA3A3D0E02212041694
:1003130053F4BF53FEBF43F6407E00A29640030E44
:10032300800B1204CBE964027003E555FE7555009A
:100333007554007551007552007557197558067537
:10034300590A755A06755B5A755C11755DC3755EFE
:1003530011EE60057553008023901893E49364E1D4
:100363007016901894E493648C700D901895E49330
:10037300646470047A0180027A008A537547937526
:100383004800754909754A01754B09754C01754D4E
:1003930009754E01754F097550011205DF7A177BF8
:1003A30000120A88755614EE7004E553702353F453
:1003B300FED29043FE011204767A327B0012049F30
:1003C300EE60077AC27B0112049F63A008E5A08058
:1003D300E8D2A475540112180022748055C6FA7429
:1003E3000169701853BEFBE5BEA2E550FA74494A91
:1003F300FA8AC6E5C66A70FB43BE0422E97013534A
:10040300BEFBE5BEA2E650FA8AC6E5C66A70FB43A8
:10041300BE042212047C53F5EFC2A443FF1053F52C
:10042300F7C2A343FF0812046D53F4F7D29343FEBC
:100433000853F3FBD28243FD0453F3FDD28143FD02
:100443000253F4BFC29643FE4053F4FBC29243FEF1
:100453000453F47F53FE7F43F68053F4FD53FEFDB4
:1004630043F60253F1FD43F1012253F3FED28043DD
:10047300FD0122D2AF22C2AF2279001203DD53C69F
:10048300F8E5C622800C00000000EA24FF1AEB34D2
:10049300FFFBC3EA9402EB940050EB22EEC0E0EFC3
:1004A300C0E0EAFEEBFF80077AE87B03120487EEE5
:1004B300F8EFF974FF281E74FF39FFE87001E97043
:1004C300E7D0E0FFD0E0FE22741855BEC313131328
:1004D30012027B0101DE04E104E4047900227901C4
:1004E30022790222EEC0E0EAFE7A007B00801585C5
:1004F3001082851183E0FC18E62CFC08E63400FD2D
:100503008C108D11E54965107004E54A6511602F63
:100513007810E62401F58208E63400F583E069707B
:1005230017AA10AB118A828B83E0FCEA2CFCEB3414
:1005330000FD8C108D118007E06E70B3EE60B0D0BB
:10054300E0FE228547108548117A0079011204E7FD
:100553002274021201DAE9FEEAFF85471085481189
:10056300800D8A828B83A3A3A3A3A3E06E60147A76
:100573000079021204E7EA7001EB6007EE70E3EF23
:100583001F70EC7F020201F074021201DAEAFEEB43
:10059300FF7A001205547A0279041204E7EA700123
:1005A300EB60158A828B83A3A3E06E70E98A828B4A
:1005B30083A3A3A3E06F70DE80C9EEC0E0C008C0D0
:1005C30009E9FE8547108548117A0079031204E78B
:1005D300EE1E70F5D009D008D0E0FE227A00790132
:1005E3001205548A828B83A3A3A3A3A3A3A3E0A28C
:1005F300E65004D2F08002C2F0A2F0E492E0F541AA
:1006030075400043BE8022752E02752F007535009C
:1006130079031208562274041201DA90DE0EE0FF09
:10062300E4F090DE11E0FEA2E4501C7480F0753516
:10063300077812E6700208E6600A78128682088656
:10064300831201D8753500EEA2E2500AE490DE1160
:10065300F0F5350206DEE535FA74026A706790DE5E
:1006630016E0F50A782912026DA90A7A207BDE12B8
:100673000873158115811581850A0812083DA9297A
:10068300AA2AAB2BE9250A12084AE52C7002E52DAC
:1006930060047A4080027A48EA90DE11F0E52C701B
:1006A30002E52D70167812E6700208E6600A7812E9
:1006B30086820886831201D8753500EF90DE0EF02E
:1006C3007F040201F074066A700A78128682088633
:1006D300831201D8E53560030207CFEEA2E050DBB9
:1006E300750821750900750A01780812026D7908E9
:1006F3007A207BDE120873158115811581781276B5
:1007030000087600E522FA74E055211202B10006D2
:1007130000270720AA07409407806407A0B507C0F5
:100723009F075F07EA1202B10006014B0703460762
:10073300054107075A070950070B55075F07120DB5
:10074300288078120D1C8073120D10806E12102DEC
:1007530080691210F58064120A7F805F753504800A
:1007630060EA1202B10005007B07068007088507CF
:100773000A8A070C8F075F07120B92803E120D63E4
:100783008039120FFC80341210C8802F120A838024
:100793002A1876D20876081208D2801F18761C0809
:1007A300760912091C801418765E08760912095E10
:1007B30080091876970876091209977404653570CD
:1007C300047A6080027A40EA90DE11F0E535FA742B
:1007D300016A70517E02A82CA92DC3E89420E994E4
:1007E300005007E8F50A7E0A8003750A207829126B
:1007F300026DA90A7A207BDE1208961581158115F0
:1008030081850A08A929AA2AAB2BE9250812084AD7
:1008130012083DEE90DE11F0E50AC3942040030276
:1008230006BE0206A874056A60030206BE78128635
:10083300820886831201D80206BE782CC3E6950887
:10084300F608E69400F622F9EA3400FA89298A2A9E
:100853008B2B227A00743612086940F97A00743BB4
:1008630012086940F9222AF8E9F60AEAC394052234
:10087300EEC0E0EFC0E08A828B83E9FFE5811208D6
:10088300BF6009E01201A01208B470F7D0E0FFD0F6
:10089300E0FE22EEC0E0EFC0E08A828B83E9FFE551
:1008A300811208BF6009120186F01208B470F78044
:1008B300DBE9240109EA3400FA1FEF2224FAF8E6FF
:1008C300FC08E6FD08E6FEECF9EDFAEEFBEF22E5A7
:1008D3002212027BC103EF08E308EF08E708EB08E5
:1008E3001213322212140F2212142822E553602508
:1008F300E5546021901896E493C0E0740193F58366
:10090300D082A3A3A3A3A3A31209897002E58360E2
:10091300041201D82275350422E52212027BC0029B
:1009230033092B0933092F09121205221213C72287
:10093300E5536023E554601F901896E493C0E07478
:100943000193F583D082A3A3A3A31209897002E5BF
:100953008360041201D82275350422E5536018E53B
:10096300546014901896E493240A12097E7002E5E9
:100973008360041201D82275350422F8A3E493346A
:1009830000F988828983E493F8740193F988828952
:1009930083E58222E5536027E5546023901896E4AB
:1009A30093C0E0740193F583D082A3A3A3A3A3A36D
:1009B300A3A31209897002E58360041201D822758A
:1009C300350422E5536018E5546014901896E493B7
:1009D300240C12097E7002E58360041201D822758B
:1009E300350422E5536018E5546014901896E49397
:1009F300240E12097E7002E58360041201D8227569
:100A0300350422E553602CE5546028901896E4934E
:100A13002410FCA3E4933400FD8C828D83E493FCC7
:100A2300740193FD8C828D83E5827002E5836003FC
:100A33001201D822E5536017E5546013901896E429
:100A430093241212097E7002E58360031201D8A871
:100A530042E85404600FE556A2E25009784274FB61
:100A630056F612060AA842E85410600FE556A2E4AF
:100A73005009784274EF56F612061922753504228E
:100A83007535042222C008C009439A02438C1075AD
:100A930042007543007544008A458B46EA90DE0B9D
:100AA300F08A088B09740478081201B6E50890DE11
:100AB30007F08A088B09740978081201B6E508540F
:100AC3003E90DE09F0D009D00822C0E07402120281
:100AD30007E5BEA2E650FA90DE06E0FAA2E2503540
:100AE300A845E890DE0BF0F50885460974047808FC
:100AF3001201B6E50890DE07F085450885460974BE
:100B03000978081201B6E508543E90DE09F090DE3C
:100B130001E0D2E0F07842EA46F690DE02E0F50822
:100B2300750900740478081201C57842E50846F691
:100B330008E50946F690DE04E0F508750900740936
:100B430078081201C5784208E50946F6EAA2E050A2
:100B53000375440174065A6003754400120A37E5AD
:100B63008BF4F58BC2E87F0202023EC0E0740112EF
:100B73000207E5BEA2E650FAE589FEA2E75005C2E8
:100B8300BD1211F3EEF4F589C2C57F0102023EE501
:100B9300237002E5247023A825A926E9701C74029A
:100BA30065277002E5287012E52112027B8002BDE1
:100BB3000BBA0BDF0BED0BE8600475350422E5413E
:100BC300600478018002780090F000E8F0A3E4F07C
:100BD300E540604F90F000E0440280437404652ECA
:100BE30070D890F000E4F0A38038E8547FFA7404DE
:100BF300652E70C6EAC3940650C0742E2AFAE854D0
:100C030080600D74072AF8E66403700D7801800B89
:100C1300740C2AF8E6640360F3780090F000E8F0BF
:100C2300A3E4F07404653560207C007DF0AA25748C
:100C33001F5521F9120A87752900752AF0752B00B3
:100C4300752C02752D0075350122E9FCE52770022C
:100C5300E5287010AA25AB267404652E600CEA7093
:100C630001EB6006753504020D0DA823741F552191
:100C730012027B0002670C800C850C9A0CE864015D
:100C830060037900228C40EC6004790580027906C8
:100C93007A00120A068073EA547FFAE870E4EAC322
:100CA300940650C0EA90DE0EF0742E2AFBA825E8C5
:100CB30054806028EC60047D1080027D40ED90DE5E
:100CC30011F0EC60047D0380027D0074072BF8EDC6
:100CD300F6EC60047908802A79078026EC60047DAD
:100CE3002080027D80ED90DE14F0EC60047D0380B3
:100CF300027D00740C2BF8EDF6EC6004790A800297
:100D03007909120A06E490DE0EF0790122790012C5
:100D13000C4DE970031209C6227901120C4DE970DA
:100D2300031209E622E5257002E5267014E5277013
:100D330002E528700CA823A924E97005E854806013
:100D43000475350422E890DE00F0600A7402652E13
:100D5300700D752E03227403652E7003752E022207
:100D630074041201DAAA23AB24EB12027B0102D42E
:100D73000D7A0D940DCD0D1205468A298B2A8E2BE3
:100D8300A929AA2A7B00120186F8882C8B2D020E32
:100D93007579001205548A298B2A8E2BA929AA2A30
:100DA3007B00E924020909EA3400FA120186FC19DE
:100DB30019AA2AE92403090909EA3400FA12018667
:100DC300F9ECF8882C892D020E75EAF91205BD801D
:100DD300A98E298E2A8E2B7C0080727509007403DC
:100DE30078081201C5784BE62508FA08E63509FBB1
:100DF300AE23AF248A828B83E0C0E0EFF8D0E068B3
:100E0300704AA3E06E7045AE25AF268A828B83A31A
:100E1300A3E0C0E0EFF8D0E06870318A828B83A34F
:100E2300A3A3E06E70268A828B83A3A3A3A3E0F51A
:100E330008A3E0850829F52A752B008A828B83A3F2
:100E4300A3A3A3A3A3E0F52CA3E0F52D0C8C0879B1
:100E53004D784BE7C396F50A0809E796F50B74033B
:100E6300780A1201B6C3E508950AE4950B5003020C
:100E73000DDEAC29AD2AAE2BEC4D4E700575350455
:100E8300801A740465356014A827A928C3E8952C33
:100E9300E9952D5004882C892D7535017F040201B5
:100EA300F074081201DA05810581E58114F8EAF688
:100EB30008EBF68A828B83A3A3A3A3E06026AE4F3D
:100EC300AF508008EE2404FEEF3400FF8E828F8340
:100ED300E493FA740193FBE58114F8E66A7003085E
:100EE300E66B70E0750800803C749090DE14F0743B
:100EF30010120FF170037509408E828F83A3A3A391
:100F0300E493550A6006E509D2E0F509E50990DEA8
:100F130015F0EA90DE13F0740C250FF87600E490D8
:100F2300DE0EF00508E58114F88682088683A3A304
:100F3300A3A3E0FAE508C39A4003020FE87A007915
:100F4300051204E78A0A8B0BAC0AAD0BEC7001EDBA
:100F530060D1EC2402F8ED3400F9880C890D888205
:100F6300F583E0540FF50E90DE0EF07509008C82C8
:100F73008D83A3A3A3A3E02407F50AA3E03400F51C
:100F83000B7403780A1201B6AA0A742E250EF50F04
:100F9300750A01750B00E50E780A1201C5EC2403EE
:100FA300F8ED3400F9850C82850D83E0A2E7400358
:100FB300020EEC744890DE11F07408120FF1700306
:100FC3007509408E828F83A3A3E493550A6006E5D7
:100FD30009D2E0F509E50990DE12F0EA90DE10F09F
:100FE3007407020F1C158115817F080201F0F08838
:100FF300828983E05403640122E5237002E52470AF
:1010030012E5257002E526700A740165277002E572
:101013002860047535042275292F752A00752B0164
:10102300752C01752D007535012274041201DA74D3
:1010330002652E6015E5257002E526700DE5277023
:1010430002E5287005A924E9600575350480737AE3
:10105300007901120A06A823E860587A00F91205FC
:10106300548A088B09AE08AF09EE7001EF603F7533
:101073002E04A823E8F52F7509008E828F83A3A37E
:10108300A3A3E0FAE509C39A503174302509F508A2
:10109300F876007A0079041204E78A828B83A3A38B
:1010A300A3E0A8086670EC120EA4050980CC753580
:1010B300048008752E0379031208567A0079021208
:1010C3000A06020E9F7404652E70187481652170E0
:1010D30012E5237002E524700A740165277002E5A6
:1010E30028600475350422A825E82430F9892902EB
:1010F300101D74021201DA7404652E700E740165FA
:10110300217008E5277002E52860057535048042E3
:10111300A823E8FBA825E8FAA92F12058B8A088BD8
:1011230009A808A909E8FEE9FFE87001E960DCAA5B
:10113300257903120A06A823E8C0E0A825E824308D
:10114300F8D0E0F6EEFAEFFB120EA4AA257904120A
:101153000A067F020201F0745390F002F074BE900D
:10116300F003F074FC90F004F0744390F005F07415
:10117300BE90F006F0740190F007F0747590F008DB
:10118300F0748790F009F0740190F00AF074E59020
:10119300F00BF0744490F00CF0747090F00DF07458
:1011A300F390F00EF0742290F00FF0D2BD90F01097
:1011B3007402F0A374F0F0758202F5831201D82251
:1011C300E5407003790022C2AF1211F37544009019
:1011D300DE01E0D2E2F07A0A7B0012049F90DE0186
:1011E300E0C2E2F0C2BDC2C575897FD2AF790122E8
:1011F300E490F007F090F008F090F009F090F00A16
:10120300F022901896121326E5257002E526600356
:1012130002130B752921752A00752B01752C08758E
:101223002D00753501A851E8A929AA2AAB2B120173
:10123300A0A952E9C0E0A929AA2AAB2BE9240109F4
:10124300EA3400FAD0E01201A0E5536005E493FA12
:1012530080027A00EAC0E0A929AA2AAB2BE924027A
:101263000909EA3400FAD0E01201A0E553600674DC
:101273000193FA80027A00EAC0E0A929AA2AAB2BDB
:10128300E92403090909EA3400FAD0E01201A0E5D0
:10129300822402F582E5833400F583E5536005E497
:1012A30093FA80027A00EAC0E0A929AA2AAB2BE9C3
:1012B3002404F9EA3400FAD0E01201A0E5536006F1
:1012C300740193FA80027A00EAC0E0A929AA2AAB42
:1012D3002BE92405F9EA3400FAD0E01201A0E55421
:1012E300C0E0A929AA2AAB2BE92406F9EA3400FABB
:1012F300D0E01201A0A929AA2AAB2BE92407F9EA15
:101303003400FAE41201A022E5536016E55460129A
:10131300A3A3A3A3121326E5827002E5836003123D
:1013230001D822E493F8740193F98882898322E532
:1013330035FA7026E554700AE527700474046528AD
:1013430060057535048003753502752C00752D0411
:10135300752900752AFB752B002274026A70647468
:10136300FB90F012F0E490F013F074DF90F014F0BF
:1013730074AF90F015F0740490F016F0E490F01749
:10138300F0741290F018F0744290F019F074F0F5C4
:10139300D575D412120479E5AEA2E740FA43D6011B
:1013A300A825E8C333F5AD75AC00740755C6F874CA
:1013B30020B800028005A2E713D8FBF5AB12018227
:1013C30012047622C008C009E535703BC3E52594B5
:1013D30020E52694004005753504802BE52770042D
:1013E3007404652860047A0480027A018A358525AD
:1013F30008852609740A78081201C5F52985092A82
:10140300F52BF52C752D04D009D00822752C007509
:101413002D00E5277002E528600475350422753533
:101423000175540122E5357030120479744090DE61
:1014330011F07A0A7B0012049FC290C2A4AA23ABC4
:1014430024EA7001EB600312049FA825E8F555799F
:101453000312146412145D80FE2253C9FB43C908AE
:1014630022740359C0E074FC55C9FAD0E04AF5C9A7
:011473002256
:040000050000017680
:00000001FF
